{
  "transactions": [
    {
      "hash": "0x00cf4711ed5d231289c67e930872cac26fd6d665a72e35bd4396bb1f18816500",
      "transactionType": "CALL",
      "contractName": null,
      "contractAddress": "0x9d29d33d4329640e96cc259e141838eb3eb2f1d9",
      "function": "contribute()",
      "arguments": [],
      "transaction": {
        "from": "0x4f472991794c32aac39533d673e0669be70a80cf",
        "to": "0x9d29d33d4329640e96cc259e141838eb3eb2f1d9",
        "gas": "0xafca",
        "value": "0x1c6bf52634000",
        "input": "0xd7bb99ba",
        "nonce": "0x20b",
        "chainId": "0xaa36a7"
      },
      "additionalContracts": [],
      "isFixedGasLimit": false
    },
    {
      "hash": "0x3c741b505235071fd867c5e7abdf5138de60cfb003bb59c243705da5e8b6cf71",
      "transactionType": "CALL",
      "contractName": null,
      "contractAddress": "0x9d29d33d4329640e96cc259e141838eb3eb2f1d9",
      "function": "flip(bool)",
      "arguments": [
        "false"
      ],
      "transaction": {
        "from": "0x4f472991794c32aac39533d673e0669be70a80cf",
        "to": "0x9d29d33d4329640e96cc259e141838eb3eb2f1d9",
        "gas": "0xce2d",
        "value": "0x0",
        "input": "0x1d263f670000000000000000000000000000000000000000000000000000000000000000",
        "nonce": "0x20c",
        "chainId": "0xaa36a7"
      },
      "additionalContracts": [],
      "isFixedGasLimit": false
    },
    {
      "hash": "0x0b4f42585e525705c1d4605dbee60aab6b7bbc9439249c116399021bd6bffadd",
      "transactionType": "CREATE",
      "contractName": "AddPointProxy",
      "contractAddress": "0xc2ec0ff2baac5d9c82d8dc91a4e3d337bbb3abe5",
      "function": null,
      "arguments": [
        "0x9D29D33d4329640e96cC259E141838EB3EB2f1d9"
      ],
      "transaction": {
        "from": "0x4f472991794c32aac39533d673e0669be70a80cf",
        "gas": "0x29f18",
        "value": "0x0",
        "input": "0x608060405234801561001057600080fd5b506040516101633803806101638339818101604052602081101561003357600080fd5b5051600080546001600160a01b039092166001600160a01b031990921691909117905560ff806100646000396000f3fe6080604052348015600f57600080fd5b506004361060325760003560e01c80636121061e146037578063eeeb7a3614603f575b600080fd5b603d6061565b005b604560ba565b604080516001600160a01b039092168252519081900360200190f35b60008054604080516335f9cd5560e11b815290516001600160a01b0390921692636bf39aaa9260048084019382900301818387803b15801560a157600080fd5b505af115801560b4573d6000803e3d6000fd5b50505050565b6000546001600160a01b03168156fea2646970667358221220122ede3eb64c5352860241f2b4f0e489536cd53757a9594768193dac4984cb2364736f6c634300070000330000000000000000000000009d29d33d4329640e96cc259e141838eb3eb2f1d9",
        "nonce": "0x20d",
        "chainId": "0xaa36a7"
      },
      "additionalContracts": [],
      "isFixedGasLimit": false
    },
    {
      "hash": "0x734f437f744e3dec2ae20ec44eb935cb4fa26c768bc66a2b7eb912fc0f1e7861",
      "transactionType": "CALL",
      "contractName": "AddPointProxy",
      "contractAddress": "0xc2ec0ff2baac5d9c82d8dc91a4e3d337bbb3abe5",
      "function": "callAddPoint()",
      "arguments": [],
      "transaction": {
        "from": "0x4f472991794c32aac39533d673e0669be70a80cf",
        "to": "0xc2ec0ff2baac5d9c82d8dc91a4e3d337bbb3abe5",
        "gas": "0xb05f",
        "value": "0x0",
        "input": "0x6121061e",
        "nonce": "0x20e",
        "chainId": "0xaa36a7"
      },
      "additionalContracts": [],
      "isFixedGasLimit": false
    },
    {
      "hash": "0x2681fe52c6833bc276998bfff6d01fa60282cee00fb4ee83d1b571f9afb25ff3",
      "transactionType": "CALL",
      "contractName": null,
      "contractAddress": "0x9d29d33d4329640e96cc259e141838eb3eb2f1d9",
      "function": "transfer(address,uint256)",
      "arguments": [
        "0x4bc1cAEDBf984D34404C4D0BF2178DAB1a9Bf026",
        "1"
      ],
      "transaction": {
        "from": "0x4f472991794c32aac39533d673e0669be70a80cf",
        "to": "0x9d29d33d4329640e96cc259e141838eb3eb2f1d9",
        "gas": "0xc61b",
        "value": "0x0",
        "input": "0xa9059cbb0000000000000000000000004bc1caedbf984d34404c4d0bf2178dab1a9bf0260000000000000000000000000000000000000000000000000000000000000001",
        "nonce": "0x20f",
        "chainId": "0xaa36a7"
      },
      "additionalContracts": [],
      "isFixedGasLimit": false
    }
  ],
  "receipts": [
    {
      "status": "0x1",
      "cumulativeGasUsed": "0x15f3111",
      "logs": [],
      "logsBloom": "0x00000000000000000000000000000000000000000000000000000000000000000000000000000000000000000000000000000000000000000000000000000000000000000000000000000000000000000000000000000000000000000000000000000000000000000000000000000000000000000000000000000000000000000000000000000000000000000000000000000000000000000000000000000000000000000000000000000000000000000000000000000000000000000000000000000000000000000000000000000000000000000000000000000000000000000000000000000000000000000000000000000000000000000000000000000000",
      "type": "0x2",
      "transactionHash": "0x00cf4711ed5d231289c67e930872cac26fd6d665a72e35bd4396bb1f18816500",
      "transactionIndex": "0x88",
      "blockHash": "0xa9d4b6b8970f7ecac5bddb4ca1b2f5bea47ae21d16cf994f29e1d86936215071",
      "blockNumber": "0x60fa92",
      "gasUsed": "0x7833",
      "effectiveGasPrice": "0x64207b4d5",
      "from": "0x4f472991794c32aac39533d673e0669be70a80cf",
      "to": "0x9d29d33d4329640e96cc259e141838eb3eb2f1d9",
      "contractAddress": null
    },
    {
      "status": "0x1",
      "cumulativeGasUsed": "0x15fbe0b",
      "logs": [],
      "logsBloom": "0x00000000000000000000000000000000000000000000000000000000000000000000000000000000000000000000000000000000000000000000000000000000000000000000000000000000000000000000000000000000000000000000000000000000000000000000000000000000000000000000000000000000000000000000000000000000000000000000000000000000000000000000000000000000000000000000000000000000000000000000000000000000000000000000000000000000000000000000000000000000000000000000000000000000000000000000000000000000000000000000000000000000000000000000000000000000",
      "type": "0x2",
      "transactionHash": "0x3c741b505235071fd867c5e7abdf5138de60cfb003bb59c243705da5e8b6cf71",
      "transactionIndex": "0x89",
      "blockHash": "0xa9d4b6b8970f7ecac5bddb4ca1b2f5bea47ae21d16cf994f29e1d86936215071",
      "blockNumber": "0x60fa92",
      "gasUsed": "0x8cfa",
      "effectiveGasPrice": "0x64207b4d5",
      "from": "0x4f472991794c32aac39533d673e0669be70a80cf",
      "to": "0x9d29d33d4329640e96cc259e141838eb3eb2f1d9",
      "contractAddress": null
    },
    {
      "status": "0x1",
      "cumulativeGasUsed": "0x161c25f",
      "logs": [],
      "logsBloom": "0x00000000000000000000000000000000000000000000000000000000000000000000000000000000000000000000000000000000000000000000000000000000000000000000000000000000000000000000000000000000000000000000000000000000000000000000000000000000000000000000000000000000000000000000000000000000000000000000000000000000000000000000000000000000000000000000000000000000000000000000000000000000000000000000000000000000000000000000000000000000000000000000000000000000000000000000000000000000000000000000000000000000000000000000000000000000",
      "type": "0x2",
      "transactionHash": "0x0b4f42585e525705c1d4605dbee60aab6b7bbc9439249c116399021bd6bffadd",
      "transactionIndex": "0x8a",
      "blockHash": "0xa9d4b6b8970f7ecac5bddb4ca1b2f5bea47ae21d16cf994f29e1d86936215071",
      "blockNumber": "0x60fa92",
      "gasUsed": "0x20454",
      "effectiveGasPrice": "0x64207b4d5",
      "from": "0x4f472991794c32aac39533d673e0669be70a80cf",
      "to": null,
      "contractAddress": "0xc2ec0ff2baac5d9c82d8dc91a4e3d337bbb3abe5"
    },
    {
      "status": "0x1",
      "cumulativeGasUsed": "0x1623af8",
      "logs": [],
      "logsBloom": "0x00000000000000000000000000000000000000000000000000000000000000000000000000000000000000000000000000000000000000000000000000000000000000000000000000000000000000000000000000000000000000000000000000000000000000000000000000000000000000000000000000000000000000000000000000000000000000000000000000000000000000000000000000000000000000000000000000000000000000000000000000000000000000000000000000000000000000000000000000000000000000000000000000000000000000000000000000000000000000000000000000000000000000000000000000000000",
      "type": "0x2",
      "transactionHash": "0x734f437f744e3dec2ae20ec44eb935cb4fa26c768bc66a2b7eb912fc0f1e7861",
      "transactionIndex": "0x8b",
      "blockHash": "0xa9d4b6b8970f7ecac5bddb4ca1b2f5bea47ae21d16cf994f29e1d86936215071",
      "blockNumber": "0x60fa92",
      "gasUsed": "0x7899",
      "effectiveGasPrice": "0x64207b4d5",
      "from": "0x4f472991794c32aac39533d673e0669be70a80cf",
      "to": "0xc2ec0ff2baac5d9c82d8dc91a4e3d337bbb3abe5",
      "contractAddress": null
    },
    {
      "status": "0x1",
      "cumulativeGasUsed": "0x162ca66",
      "logs": [],
      "logsBloom": "0x00000000000000000000000000000000000000000000000000000000000000000000000000000000000000000000000000000000000000000000000000000000000000000000000000000000000000000000000000000000000000000000000000000000000000000000000000000000000000000000000000000000000000000000000000000000000000000000000000000000000000000000000000000000000000000000000000000000000000000000000000000000000000000000000000000000000000000000000000000000000000000000000000000000000000000000000000000000000000000000000000000000000000000000000000000000",
      "type": "0x2",
      "transactionHash": "0x2681fe52c6833bc276998bfff6d01fa60282cee00fb4ee83d1b571f9afb25ff3",
      "transactionIndex": "0x8c",
      "blockHash": "0xa9d4b6b8970f7ecac5bddb4ca1b2f5bea47ae21d16cf994f29e1d86936215071",
      "blockNumber": "0x60fa92",
      "gasUsed": "0x8f6e",
      "effectiveGasPrice": "0x64207b4d5",
      "from": "0x4f472991794c32aac39533d673e0669be70a80cf",
      "to": "0x9d29d33d4329640e96cc259e141838eb3eb2f1d9",
      "contractAddress": null
    }
  ],
  "libraries": [],
  "pending": [],
  "returns": {},
  "timestamp": 1721642680,
  "chain": 11155111,
  "commit": "3900b0c"
}