{
  "transactions": [
    {
      "hash": "0xf963e066842413a8bda126767d15829bf3172b956dbd7631db2266f984283906",
      "transactionType": "CALL",
      "contractName": null,
      "contractAddress": "0x9d29d33d4329640e96cc259e141838eb3eb2f1d9",
      "function": "contribute()",
      "arguments": [],
      "transaction": {
        "from": "0x4f472991794c32aac39533d673e0669be70a80cf",
        "to": "0x9d29d33d4329640e96cc259e141838eb3eb2f1d9",
        "gas": "0xafca",
        "value": "0x1c6bf52634000",
        "input": "0xd7bb99ba",
        "nonce": "0x21d",
        "chainId": "0xaa36a7"
      },
      "additionalContracts": [],
      "isFixedGasLimit": false
    },
    {
      "hash": "0xc9dde4c54b344ee218e78425456aeacd3cb2aa245436b9cd061d58fe97bb0636",
      "transactionType": "CALL",
      "contractName": null,
      "contractAddress": "0x9d29d33d4329640e96cc259e141838eb3eb2f1d9",
      "function": "flip(bool)",
      "arguments": [
        "false"
      ],
      "transaction": {
        "from": "0x4f472991794c32aac39533d673e0669be70a80cf",
        "to": "0x9d29d33d4329640e96cc259e141838eb3eb2f1d9",
        "gas": "0xce2d",
        "value": "0x0",
        "input": "0x1d263f670000000000000000000000000000000000000000000000000000000000000000",
        "nonce": "0x21e",
        "chainId": "0xaa36a7"
      },
      "additionalContracts": [],
      "isFixedGasLimit": false
    },
    {
      "hash": "0xa17ea5cc7974f63603cbb6d33b90ec6da367496003f1479983f87b81882c590f",
      "transactionType": "CREATE",
      "contractName": "AddPointProxy",
      "contractAddress": "0x6221a83b4c901a816fcca5d5c22835e18114561b",
      "function": null,
      "arguments": [
        "0x9D29D33d4329640e96cC259E141838EB3EB2f1d9"
      ],
      "transaction": {
        "from": "0x4f472991794c32aac39533d673e0669be70a80cf",
        "gas": "0x29f08",
        "value": "0x0",
        "input": "0x608060405234801561001057600080fd5b506040516101633803806101638339818101604052602081101561003357600080fd5b5051600080546001600160a01b039092166001600160a01b031990921691909117905560ff806100646000396000f3fe6080604052348015600f57600080fd5b506004361060325760003560e01c80636121061e146037578063eeeb7a3614603f575b600080fd5b603d6061565b005b604560ba565b604080516001600160a01b039092168252519081900360200190f35b60008054604080516335f9cd5560e11b815290516001600160a01b0390921692636bf39aaa9260048084019382900301818387803b15801560a157600080fd5b505af115801560b4573d6000803e3d6000fd5b50505050565b6000546001600160a01b03168156fea2646970667358221220db39501d7c0063ea4cef9e30163286a60eb27174575fd1845861ad965d4bbcfa64736f6c634300070000330000000000000000000000009d29d33d4329640e96cc259e141838eb3eb2f1d9",
        "nonce": "0x21f",
        "chainId": "0xaa36a7"
      },
      "additionalContracts": [],
      "isFixedGasLimit": false
    },
    {
      "hash": "0xef89566a926755696d4e4d1ced4cc094b99f88a51cc4526b502d980370bce0e6",
      "transactionType": "CALL",
      "contractName": "AddPointProxy",
      "contractAddress": "0x6221a83b4c901a816fcca5d5c22835e18114561b",
      "function": "callAddPoint()",
      "arguments": [],
      "transaction": {
        "from": "0x4f472991794c32aac39533d673e0669be70a80cf",
        "to": "0x6221a83b4c901a816fcca5d5c22835e18114561b",
        "gas": "0xb05f",
        "value": "0x0",
        "input": "0x6121061e",
        "nonce": "0x220",
        "chainId": "0xaa36a7"
      },
      "additionalContracts": [],
      "isFixedGasLimit": false
    },
    {
      "hash": "0xbf4ab8ceb65b6289b7110738d3a057b5694a152000f130c9ae7584de101821c5",
      "transactionType": "CALL",
      "contractName": null,
      "contractAddress": "0x9d29d33d4329640e96cc259e141838eb3eb2f1d9",
      "function": "transfer(address,uint256)",
      "arguments": [
        "0x4F472991794c32aac39533d673e0669bE70a80cf",
        "1"
      ],
      "transaction": {
        "from": "0x4f472991794c32aac39533d673e0669be70a80cf",
        "to": "0x9d29d33d4329640e96cc259e141838eb3eb2f1d9",
        "gas": "0x9d1a",
        "value": "0x0",
        "input": "0xa9059cbb0000000000000000000000004f472991794c32aac39533d673e0669be70a80cf0000000000000000000000000000000000000000000000000000000000000001",
        "nonce": "0x221",
        "chainId": "0xaa36a7"
      },
      "additionalContracts": [],
      "isFixedGasLimit": false
    }
  ],
  "receipts": [
    {
      "status": "0x1",
      "cumulativeGasUsed": "0x7d5f22",
      "logs": [],
      "logsBloom": "0x00000000000000000000000000000000000000000000000000000000000000000000000000000000000000000000000000000000000000000000000000000000000000000000000000000000000000000000000000000000000000000000000000000000000000000000000000000000000000000000000000000000000000000000000000000000000000000000000000000000000000000000000000000000000000000000000000000000000000000000000000000000000000000000000000000000000000000000000000000000000000000000000000000000000000000000000000000000000000000000000000000000000000000000000000000000",
      "type": "0x2",
      "transactionHash": "0xf963e066842413a8bda126767d15829bf3172b956dbd7631db2266f984283906",
      "transactionIndex": "0x3e",
      "blockHash": "0xcdd54f888317833d40e4d2cc103deb9b068fb88bb32a3d10916436c9b38f09ff",
      "blockNumber": "0x60faa3",
      "gasUsed": "0x7833",
      "effectiveGasPrice": "0x5a367436a",
      "from": "0x4f472991794c32aac39533d673e0669be70a80cf",
      "to": "0x9d29d33d4329640e96cc259e141838eb3eb2f1d9",
      "contractAddress": null
    },
    {
      "status": "0x1",
      "cumulativeGasUsed": "0x7dec1c",
      "logs": [],
      "logsBloom": "0x00000000000000000000000000000000000000000000000000000000000000000000000000000000000000000000000000000000000000000000000000000000000000000000000000000000000000000000000000000000000000000000000000000000000000000000000000000000000000000000000000000000000000000000000000000000000000000000000000000000000000000000000000000000000000000000000000000000000000000000000000000000000000000000000000000000000000000000000000000000000000000000000000000000000000000000000000000000000000000000000000000000000000000000000000000000",
      "type": "0x2",
      "transactionHash": "0xc9dde4c54b344ee218e78425456aeacd3cb2aa245436b9cd061d58fe97bb0636",
      "transactionIndex": "0x3f",
      "blockHash": "0xcdd54f888317833d40e4d2cc103deb9b068fb88bb32a3d10916436c9b38f09ff",
      "blockNumber": "0x60faa3",
      "gasUsed": "0x8cfa",
      "effectiveGasPrice": "0x5a367436a",
      "from": "0x4f472991794c32aac39533d673e0669be70a80cf",
      "to": "0x9d29d33d4329640e96cc259e141838eb3eb2f1d9",
      "contractAddress": null
    },
    {
      "status": "0x1",
      "cumulativeGasUsed": "0x7ff064",
      "logs": [],
      "logsBloom": "0x00000000000000000000000000000000000000000000000000000000000000000000000000000000000000000000000000000000000000000000000000000000000000000000000000000000000000000000000000000000000000000000000000000000000000000000000000000000000000000000000000000000000000000000000000000000000000000000000000000000000000000000000000000000000000000000000000000000000000000000000000000000000000000000000000000000000000000000000000000000000000000000000000000000000000000000000000000000000000000000000000000000000000000000000000000000",
      "type": "0x2",
      "transactionHash": "0xa17ea5cc7974f63603cbb6d33b90ec6da367496003f1479983f87b81882c590f",
      "transactionIndex": "0x40",
      "blockHash": "0xcdd54f888317833d40e4d2cc103deb9b068fb88bb32a3d10916436c9b38f09ff",
      "blockNumber": "0x60faa3",
      "gasUsed": "0x20448",
      "effectiveGasPrice": "0x5a367436a",
      "from": "0x4f472991794c32aac39533d673e0669be70a80cf",
      "to": null,
      "contractAddress": "0x6221a83b4c901a816fcca5d5c22835e18114561b"
    },
    {
      "status": "0x1",
      "cumulativeGasUsed": "0x8068fd",
      "logs": [],
      "logsBloom": "0x00000000000000000000000000000000000000000000000000000000000000000000000000000000000000000000000000000000000000000000000000000000000000000000000000000000000000000000000000000000000000000000000000000000000000000000000000000000000000000000000000000000000000000000000000000000000000000000000000000000000000000000000000000000000000000000000000000000000000000000000000000000000000000000000000000000000000000000000000000000000000000000000000000000000000000000000000000000000000000000000000000000000000000000000000000000",
      "type": "0x2",
      "transactionHash": "0xef89566a926755696d4e4d1ced4cc094b99f88a51cc4526b502d980370bce0e6",
      "transactionIndex": "0x41",
      "blockHash": "0xcdd54f888317833d40e4d2cc103deb9b068fb88bb32a3d10916436c9b38f09ff",
      "blockNumber": "0x60faa3",
      "gasUsed": "0x7899",
      "effectiveGasPrice": "0x5a367436a",
      "from": "0x4f472991794c32aac39533d673e0669be70a80cf",
      "to": "0x6221a83b4c901a816fcca5d5c22835e18114561b",
      "contractAddress": null
    },
    {
      "status": "0x1",
      "cumulativeGasUsed": "0x80dabb",
      "logs": [],
      "logsBloom": "0x00000000000000000000000000000000000000000000000000000000000000000000000000000000000000000000000000000000000000000000000000000000000000000000000000000000000000000000000000000000000000000000000000000000000000000000000000000000000000000000000000000000000000000000000000000000000000000000000000000000000000000000000000000000000000000000000000000000000000000000000000000000000000000000000000000000000000000000000000000000000000000000000000000000000000000000000000000000000000000000000000000000000000000000000000000000",
      "type": "0x2",
      "transactionHash": "0xbf4ab8ceb65b6289b7110738d3a057b5694a152000f130c9ae7584de101821c5",
      "transactionIndex": "0x42",
      "blockHash": "0xcdd54f888317833d40e4d2cc103deb9b068fb88bb32a3d10916436c9b38f09ff",
      "blockNumber": "0x60faa3",
      "gasUsed": "0x71be",
      "effectiveGasPrice": "0x5a367436a",
      "from": "0x4f472991794c32aac39533d673e0669be70a80cf",
      "to": "0x9d29d33d4329640e96cc259e141838eb3eb2f1d9",
      "contractAddress": null
    }
  ],
  "libraries": [],
  "pending": [],
  "returns": {},
  "timestamp": 1721642931,
  "chain": 11155111,
  "commit": "3900b0c"
}