{
  "transactions": [
    {
      "hash": "0xeaf175d40570ef6f05b10ab024168ac3c9583a972228279d6710e4d97032c426",
      "transactionType": "CALL",
      "contractName": null,
      "contractAddress": "0x9d29d33d4329640e96cc259e141838eb3eb2f1d9",
      "function": "contribute()",
      "arguments": [],
      "transaction": {
        "from": "0x4f472991794c32aac39533d673e0669be70a80cf",
        "to": "0x9d29d33d4329640e96cc259e141838eb3eb2f1d9",
        "gas": "0x12e3d",
        "value": "0x1c6bf52634000",
        "input": "0xd7bb99ba",
        "nonce": "0x1fb",
        "chainId": "0xaa36a7"
      },
      "additionalContracts": [],
      "isFixedGasLimit": false
    },
    {
      "hash": "0x7f1ea97e7601c6aeda7bb8af3a089c729add6aa7109fa12765139cb60eda627a",
      "transactionType": "CALL",
      "contractName": null,
      "contractAddress": "0x9d29d33d4329640e96cc259e141838eb3eb2f1d9",
      "function": "flip(bool)",
      "arguments": [
        "false"
      ],
      "transaction": {
        "from": "0x4f472991794c32aac39533d673e0669be70a80cf",
        "to": "0x9d29d33d4329640e96cc259e141838eb3eb2f1d9",
        "gas": "0x11efc",
        "value": "0x0",
        "input": "0x1d263f670000000000000000000000000000000000000000000000000000000000000000",
        "nonce": "0x1fc",
        "chainId": "0xaa36a7"
      },
      "additionalContracts": [],
      "isFixedGasLimit": false
    }
  ],
  "receipts": [
    {
      "status": "0x1",
      "cumulativeGasUsed": "0xd90d9a",
      "logs": [],
      "logsBloom": "0x00000000000000000000000000000000000000000000000000000000000000000000000000000000000000000000000000000000000000000000000000000000000000000000000000000000000000000000000000000000000000000000000000000000000000000000000000000000000000000000000000000000000000000000000000000000000000000000000000000000000000000000000000000000000000000000000000000000000000000000000000000000000000000000000000000000000000000000000000000000000000000000000000000000000000000000000000000000000000000000000000000000000000000000000000000000",
      "type": "0x2",
      "transactionHash": "0xeaf175d40570ef6f05b10ab024168ac3c9583a972228279d6710e4d97032c426",
      "transactionIndex": "0x74",
      "blockHash": "0x48dfe28185632607bbdbc727e2434897bfd9b641965781e97a2719fc7aaf5545",
      "blockNumber": "0x60fa73",
      "gasUsed": "0xcea9",
      "effectiveGasPrice": "0x5b9965d14",
      "from": "0x4f472991794c32aac39533d673e0669be70a80cf",
      "to": "0x9d29d33d4329640e96cc259e141838eb3eb2f1d9",
      "contractAddress": null
    },
    {
      "status": "0x1",
      "cumulativeGasUsed": "0xda4568",
      "logs": [],
      "logsBloom": "0x00000000000000000000000000000000000000000000000000000000000000000000000000000000000000000000000000000000000000000000000000000000000000000000000000000000000000000000000000000000000000000000000000000000000000000000000000000000000000000000000000000000000000000000000000000000000000000000000000000000000000000000000000000000000000000000000000000000000000000000000000000000000000000000000000000000000000000000000000000000000000000000000000000000000000000000000000000000000000000000000000000000000000000000000000000000",
      "type": "0x2",
      "transactionHash": "0x7f1ea97e7601c6aeda7bb8af3a089c729add6aa7109fa12765139cb60eda627a",
      "transactionIndex": "0x76",
      "blockHash": "0x48dfe28185632607bbdbc727e2434897bfd9b641965781e97a2719fc7aaf5545",
      "blockNumber": "0x60fa73",
      "gasUsed": "0xcfc6",
      "effectiveGasPrice": "0x5b9965d14",
      "from": "0x4f472991794c32aac39533d673e0669be70a80cf",
      "to": "0x9d29d33d4329640e96cc259e141838eb3eb2f1d9",
      "contractAddress": null
    }
  ],
  "libraries": [],
  "pending": [],
  "returns": {},
  "timestamp": 1721642224,
  "chain": 11155111,
  "commit": "3900b0c"
}