{
  "transactions": [
    {
      "hash": "0xc9ab8d0670a83354d9b58588752772eafe37277fe18f54bfb49b6e354db7669f",
      "transactionType": "CALL",
      "contractName": null,
      "contractAddress": "0x9d29d33d4329640e96cc259e141838eb3eb2f1d9",
      "function": "contribute()",
      "arguments": [],
      "transaction": {
        "from": "0x4f472991794c32aac39533d673e0669be70a80cf",
        "to": "0x9d29d33d4329640e96cc259e141838eb3eb2f1d9",
        "gas": "0xafca",
        "value": "0x1c6bf52634000",
        "input": "0xd7bb99ba",
        "nonce": "0x222",
        "chainId": "0xaa36a7"
      },
      "additionalContracts": [],
      "isFixedGasLimit": false
    },
    {
      "hash": "0x55478bce5c28365d0cd6e8549278f448984b2bb5e0d8443b5e25769d64c45e48",
      "transactionType": "CALL",
      "contractName": null,
      "contractAddress": "0x9d29d33d4329640e96cc259e141838eb3eb2f1d9",
      "function": "flip(bool)",
      "arguments": [
        "false"
      ],
      "transaction": {
        "from": "0x4f472991794c32aac39533d673e0669be70a80cf",
        "to": "0x9d29d33d4329640e96cc259e141838eb3eb2f1d9",
        "gas": "0x16c68",
        "value": "0x0",
        "input": "0x1d263f670000000000000000000000000000000000000000000000000000000000000000",
        "nonce": "0x223",
        "chainId": "0xaa36a7"
      },
      "additionalContracts": [],
      "isFixedGasLimit": false
    },
    {
      "hash": "0xccf37525859a34aea8e13d246683f74742e1b68b859587b5c08abc9a476ecd58",
      "transactionType": "CREATE",
      "contractName": "AddPointProxy",
      "contractAddress": "0x78bdca552c424f618dad5ae53c10cf80561dc777",
      "function": null,
      "arguments": [
        "0x9D29D33d4329640e96cC259E141838EB3EB2f1d9"
      ],
      "transaction": {
        "from": "0x4f472991794c32aac39533d673e0669be70a80cf",
        "gas": "0x29f18",
        "value": "0x0",
        "input": "0x608060405234801561001057600080fd5b506040516101633803806101638339818101604052602081101561003357600080fd5b5051600080546001600160a01b039092166001600160a01b031990921691909117905560ff806100646000396000f3fe6080604052348015600f57600080fd5b506004361060325760003560e01c80636121061e146037578063eeeb7a3614603f575b600080fd5b603d6061565b005b604560ba565b604080516001600160a01b039092168252519081900360200190f35b60008054604080516335f9cd5560e11b815290516001600160a01b0390921692636bf39aaa9260048084019382900301818387803b15801560a157600080fd5b505af115801560b4573d6000803e3d6000fd5b50505050565b6000546001600160a01b03168156fea26469706673582212207d776053cb8cc44f5eac325483fa70d18771825b4952fdd0ac6199eac6c1726264736f6c634300070000330000000000000000000000009d29d33d4329640e96cc259e141838eb3eb2f1d9",
        "nonce": "0x224",
        "chainId": "0xaa36a7"
      },
      "additionalContracts": [],
      "isFixedGasLimit": false
    },
    {
      "hash": "0x7b132f2a13eeb9f14b0b5dbd61ac70e00d434f6ac82300af21be00cb30844c8b",
      "transactionType": "CALL",
      "contractName": "AddPointProxy",
      "contractAddress": "0x78bdca552c424f618dad5ae53c10cf80561dc777",
      "function": "callAddPoint()",
      "arguments": [],
      "transaction": {
        "from": "0x4f472991794c32aac39533d673e0669be70a80cf",
        "to": "0x78bdca552c424f618dad5ae53c10cf80561dc777",
        "gas": "0xb05f",
        "value": "0x0",
        "input": "0x6121061e",
        "nonce": "0x225",
        "chainId": "0xaa36a7"
      },
      "additionalContracts": [],
      "isFixedGasLimit": false
    },
    {
      "hash": "0x2be7679b81fdb30931dc6d4425e7fa1151d92f7153af73bb5fce59aa572dd93c",
      "transactionType": "CALL",
      "contractName": null,
      "contractAddress": "0x9d29d33d4329640e96cc259e141838eb3eb2f1d9",
      "function": "transfer(address,uint256)",
      "arguments": [
        "0x4F472991794c32aac39533d673e0669bE70a80cf",
        "1"
      ],
      "transaction": {
        "from": "0x4f472991794c32aac39533d673e0669be70a80cf",
        "to": "0x9d29d33d4329640e96cc259e141838eb3eb2f1d9",
        "gas": "0x9d1a",
        "value": "0x0",
        "input": "0xa9059cbb0000000000000000000000004f472991794c32aac39533d673e0669be70a80cf0000000000000000000000000000000000000000000000000000000000000001",
        "nonce": "0x226",
        "chainId": "0xaa36a7"
      },
      "additionalContracts": [],
      "isFixedGasLimit": false
    }
  ],
  "receipts": [
    {
      "status": "0x1",
      "cumulativeGasUsed": "0x3c9edd",
      "logs": [],
      "logsBloom": "0x00000000000000000000000000000000000000000000000000000000000000000000000000000000000000000000000000000000000000000000000000000000000000000000000000000000000000000000000000000000000000000000000000000000000000000000000000000000000000000000000000000000000000000000000000000000000000000000000000000000000000000000000000000000000000000000000000000000000000000000000000000000000000000000000000000000000000000000000000000000000000000000000000000000000000000000000000000000000000000000000000000000000000000000000000000000",
      "type": "0x2",
      "transactionHash": "0xc9ab8d0670a83354d9b58588752772eafe37277fe18f54bfb49b6e354db7669f",
      "transactionIndex": "0x21",
      "blockHash": "0x6525c47caea57c4a60c2312f54c28f6c0f4660a2d40146f7588689498e9432b0",
      "blockNumber": "0x60fab4",
      "gasUsed": "0x7833",
      "effectiveGasPrice": "0x51cae0902",
      "from": "0x4f472991794c32aac39533d673e0669be70a80cf",
      "to": "0x9d29d33d4329640e96cc259e141838eb3eb2f1d9",
      "contractAddress": null
    },
    {
      "status": "0x1",
      "cumulativeGasUsed": "0x3f07d0",
      "logs": [],
      "logsBloom": "0x00000000000000000000000000000000000000000000000000000000000000000000000000000000000000000000000000000000000000000000000000000000000000000000000000000000000000000000000000000000000000000000000000000000000000000000000000000000000000000000000000000000000000000000000000000000000000000000000000000000000000000000000000000000000000000000000000000000000000000000000000000000000000000000000000000000000000000000000000000000000000000000000000000000000000000000000000000000000000000000000000000000000000000000000000000000",
      "type": "0x2",
      "transactionHash": "0xccf37525859a34aea8e13d246683f74742e1b68b859587b5c08abc9a476ecd58",
      "transactionIndex": "0x23",
      "blockHash": "0x6525c47caea57c4a60c2312f54c28f6c0f4660a2d40146f7588689498e9432b0",
      "blockNumber": "0x60fab4",
      "gasUsed": "0x20454",
      "effectiveGasPrice": "0x51cae0902",
      "from": "0x4f472991794c32aac39533d673e0669be70a80cf",
      "to": null,
      "contractAddress": "0x78bdca552c424f618dad5ae53c10cf80561dc777"
    },
    {
      "status": "0x1",
      "cumulativeGasUsed": "0x3f8069",
      "logs": [],
      "logsBloom": "0x00000000000000000000000000000000000000000000000000000000000000000000000000000000000000000000000000000000000000000000000000000000000000000000000000000000000000000000000000000000000000000000000000000000000000000000000000000000000000000000000000000000000000000000000000000000000000000000000000000000000000000000000000000000000000000000000000000000000000000000000000000000000000000000000000000000000000000000000000000000000000000000000000000000000000000000000000000000000000000000000000000000000000000000000000000000",
      "type": "0x2",
      "transactionHash": "0x7b132f2a13eeb9f14b0b5dbd61ac70e00d434f6ac82300af21be00cb30844c8b",
      "transactionIndex": "0x24",
      "blockHash": "0x6525c47caea57c4a60c2312f54c28f6c0f4660a2d40146f7588689498e9432b0",
      "blockNumber": "0x60fab4",
      "gasUsed": "0x7899",
      "effectiveGasPrice": "0x51cae0902",
      "from": "0x4f472991794c32aac39533d673e0669be70a80cf",
      "to": "0x78bdca552c424f618dad5ae53c10cf80561dc777",
      "contractAddress": null
    },
    {
      "status": "0x1",
      "cumulativeGasUsed": "0x3ff227",
      "logs": [],
      "logsBloom": "0x00000000000000000000000000000000000000000000000000000000000000000000000000000000000000000000000000000000000000000000000000000000000000000000000000000000000000000000000000000000000000000000000000000000000000000000000000000000000000000000000000000000000000000000000000000000000000000000000000000000000000000000000000000000000000000000000000000000000000000000000000000000000000000000000000000000000000000000000000000000000000000000000000000000000000000000000000000000000000000000000000000000000000000000000000000000",
      "type": "0x2",
      "transactionHash": "0x2be7679b81fdb30931dc6d4425e7fa1151d92f7153af73bb5fce59aa572dd93c",
      "transactionIndex": "0x25",
      "blockHash": "0x6525c47caea57c4a60c2312f54c28f6c0f4660a2d40146f7588689498e9432b0",
      "blockNumber": "0x60fab4",
      "gasUsed": "0x71be",
      "effectiveGasPrice": "0x51cae0902",
      "from": "0x4f472991794c32aac39533d673e0669be70a80cf",
      "to": "0x9d29d33d4329640e96cc259e141838eb3eb2f1d9",
      "contractAddress": null
    }
  ],
  "libraries": [],
  "pending": [],
  "returns": {},
  "timestamp": 1721643148,
  "chain": 11155111,
  "commit": "3900b0c"
}