{
  "transactions": [
    {
      "hash": "0xebc1971ff35b2604983b1125c0cb37f1a30174dab866f63ce75656194810ed0e",
      "transactionType": "CALL",
      "contractName": null,
      "contractAddress": "0x9d29d33d4329640e96cc259e141838eb3eb2f1d9",
      "function": "contribute()",
      "arguments": [],
      "transaction": {
        "from": "0x4f472991794c32aac39533d673e0669be70a80cf",
        "to": "0x9d29d33d4329640e96cc259e141838eb3eb2f1d9",
        "gas": "0xafca",
        "value": "0x1c6bf52634000",
        "input": "0xd7bb99ba",
        "nonce": "0x231",
        "chainId": "0xaa36a7"
      },
      "additionalContracts": [],
      "isFixedGasLimit": false
    },
    {
      "hash": "0x9be8f213888d3cdf44ecc2c7ea92208b6e45cbc3c66e9b84f960c7ddd5ecfd01",
      "transactionType": "CALL",
      "contractName": null,
      "contractAddress": "0x9d29d33d4329640e96cc259e141838eb3eb2f1d9",
      "function": "flip(bool)",
      "arguments": [
        "false"
      ],
      "transaction": {
        "from": "0x4f472991794c32aac39533d673e0669be70a80cf",
        "to": "0x9d29d33d4329640e96cc259e141838eb3eb2f1d9",
        "gas": "0xce2d",
        "value": "0x0",
        "input": "0x1d263f670000000000000000000000000000000000000000000000000000000000000000",
        "nonce": "0x232",
        "chainId": "0xaa36a7"
      },
      "additionalContracts": [],
      "isFixedGasLimit": false
    },
    {
      "hash": "0x6c4257759e6d855c9d74c5e4b41bf581fd4d39a6c2354641afb499c40471d67b",
      "transactionType": "CREATE",
      "contractName": "AddPointProxy",
      "contractAddress": "0x468b629bc67c22c179d847e33151888b42dbc4b7",
      "function": null,
      "arguments": [
        "0x9D29D33d4329640e96cC259E141838EB3EB2f1d9"
      ],
      "transaction": {
        "from": "0x4f472991794c32aac39533d673e0669be70a80cf",
        "gas": "0x29f18",
        "value": "0x0",
        "input": "0x608060405234801561001057600080fd5b506040516101633803806101638339818101604052602081101561003357600080fd5b5051600080546001600160a01b039092166001600160a01b031990921691909117905560ff806100646000396000f3fe6080604052348015600f57600080fd5b506004361060325760003560e01c80636121061e146037578063eeeb7a3614603f575b600080fd5b603d6061565b005b604560ba565b604080516001600160a01b039092168252519081900360200190f35b60008054604080516335f9cd5560e11b815290516001600160a01b0390921692636bf39aaa9260048084019382900301818387803b15801560a157600080fd5b505af115801560b4573d6000803e3d6000fd5b50505050565b6000546001600160a01b03168156fea2646970667358221220391deeee7b705bff657de412390cae4509d8f478f2c9e40eb95aae8b8912580464736f6c634300070000330000000000000000000000009d29d33d4329640e96cc259e141838eb3eb2f1d9",
        "nonce": "0x233",
        "chainId": "0xaa36a7"
      },
      "additionalContracts": [],
      "isFixedGasLimit": false
    },
    {
      "hash": "0xc9ca010d8229711dea088df5c2da1403efcf1d52f07216c5ede7701f05d75fae",
      "transactionType": "CALL",
      "contractName": "AddPointProxy",
      "contractAddress": "0x468b629bc67c22c179d847e33151888b42dbc4b7",
      "function": "callAddPoint()",
      "arguments": [],
      "transaction": {
        "from": "0x4f472991794c32aac39533d673e0669be70a80cf",
        "to": "0x468b629bc67c22c179d847e33151888b42dbc4b7",
        "gas": "0xb05f",
        "value": "0x0",
        "input": "0x6121061e",
        "nonce": "0x234",
        "chainId": "0xaa36a7"
      },
      "additionalContracts": [],
      "isFixedGasLimit": false
    },
    {
      "hash": "0x431d1a0348494be49a2ebaf59db50af3042844e1ad86c8c5b8c0e01046a73874",
      "transactionType": "CALL",
      "contractName": null,
      "contractAddress": "0x9d29d33d4329640e96cc259e141838eb3eb2f1d9",
      "function": "transfer(address,uint256)",
      "arguments": [
        "0x4F472991794c32aac39533d673e0669bE70a80cf",
        "1"
      ],
      "transaction": {
        "from": "0x4f472991794c32aac39533d673e0669be70a80cf",
        "to": "0x9d29d33d4329640e96cc259e141838eb3eb2f1d9",
        "gas": "0x9d1a",
        "value": "0x0",
        "input": "0xa9059cbb0000000000000000000000004f472991794c32aac39533d673e0669be70a80cf0000000000000000000000000000000000000000000000000000000000000001",
        "nonce": "0x235",
        "chainId": "0xaa36a7"
      },
      "additionalContracts": [],
      "isFixedGasLimit": false
    },
    {
      "hash": "0x5d02cc20d60d9963d855db1c9226b97d0dc12048060c8da1700a3a9fd9b4b272",
      "transactionType": "CALL",
      "contractName": null,
      "contractAddress": "0x9d29d33d4329640e96cc259e141838eb3eb2f1d9",
      "function": "sendKey(bytes16)",
      "arguments": [
        "0x4cded594c37730434fcf53dd25e29ab500000000000000000000000000000000"
      ],
      "transaction": {
        "from": "0x4f472991794c32aac39533d673e0669be70a80cf",
        "to": "0x9d29d33d4329640e96cc259e141838eb3eb2f1d9",
        "gas": "0x12186",
        "value": "0x0",
        "input": "0x9d3ad91a4cded594c37730434fcf53dd25e29ab500000000000000000000000000000000",
        "nonce": "0x236",
        "chainId": "0xaa36a7"
      },
      "additionalContracts": [],
      "isFixedGasLimit": false
    }
  ],
  "receipts": [
    {
      "status": "0x1",
      "cumulativeGasUsed": "0x1aa45cf",
      "logs": [],
      "logsBloom": "0x00000000000000000000000000000000000000000000000000000000000000000000000000000000000000000000000000000000000000000000000000000000000000000000000000000000000000000000000000000000000000000000000000000000000000000000000000000000000000000000000000000000000000000000000000000000000000000000000000000000000000000000000000000000000000000000000000000000000000000000000000000000000000000000000000000000000000000000000000000000000000000000000000000000000000000000000000000000000000000000000000000000000000000000000000000000",
      "type": "0x2",
      "transactionHash": "0xebc1971ff35b2604983b1125c0cb37f1a30174dab866f63ce75656194810ed0e",
      "transactionIndex": "0xd4",
      "blockHash": "0x1553131455e94df672b3a993fd6ac6e29309e0415032ce74cf7d60095b06ec6a",
      "blockNumber": "0x60fb04",
      "gasUsed": "0x7833",
      "effectiveGasPrice": "0x772f9ff6a",
      "from": "0x4f472991794c32aac39533d673e0669be70a80cf",
      "to": "0x9d29d33d4329640e96cc259e141838eb3eb2f1d9",
      "contractAddress": null
    },
    {
      "status": "0x1",
      "cumulativeGasUsed": "0x1aad2c9",
      "logs": [],
      "logsBloom": "0x00000000000000000000000000000000000000000000000000000000000000000000000000000000000000000000000000000000000000000000000000000000000000000000000000000000000000000000000000000000000000000000000000000000000000000000000000000000000000000000000000000000000000000000000000000000000000000000000000000000000000000000000000000000000000000000000000000000000000000000000000000000000000000000000000000000000000000000000000000000000000000000000000000000000000000000000000000000000000000000000000000000000000000000000000000000",
      "type": "0x2",
      "transactionHash": "0x9be8f213888d3cdf44ecc2c7ea92208b6e45cbc3c66e9b84f960c7ddd5ecfd01",
      "transactionIndex": "0xd5",
      "blockHash": "0x1553131455e94df672b3a993fd6ac6e29309e0415032ce74cf7d60095b06ec6a",
      "blockNumber": "0x60fb04",
      "gasUsed": "0x8cfa",
      "effectiveGasPrice": "0x772f9ff6a",
      "from": "0x4f472991794c32aac39533d673e0669be70a80cf",
      "to": "0x9d29d33d4329640e96cc259e141838eb3eb2f1d9",
      "contractAddress": null
    },
    {
      "status": "0x1",
      "cumulativeGasUsed": "0x1acd71d",
      "logs": [],
      "logsBloom": "0x00000000000000000000000000000000000000000000000000000000000000000000000000000000000000000000000000000000000000000000000000000000000000000000000000000000000000000000000000000000000000000000000000000000000000000000000000000000000000000000000000000000000000000000000000000000000000000000000000000000000000000000000000000000000000000000000000000000000000000000000000000000000000000000000000000000000000000000000000000000000000000000000000000000000000000000000000000000000000000000000000000000000000000000000000000000",
      "type": "0x2",
      "transactionHash": "0x6c4257759e6d855c9d74c5e4b41bf581fd4d39a6c2354641afb499c40471d67b",
      "transactionIndex": "0xd6",
      "blockHash": "0x1553131455e94df672b3a993fd6ac6e29309e0415032ce74cf7d60095b06ec6a",
      "blockNumber": "0x60fb04",
      "gasUsed": "0x20454",
      "effectiveGasPrice": "0x772f9ff6a",
      "from": "0x4f472991794c32aac39533d673e0669be70a80cf",
      "to": null,
      "contractAddress": "0x468b629bc67c22c179d847e33151888b42dbc4b7"
    },
    {
      "status": "0x1",
      "cumulativeGasUsed": "0x1ad4fb6",
      "logs": [],
      "logsBloom": "0x00000000000000000000000000000000000000000000000000000000000000000000000000000000000000000000000000000000000000000000000000000000000000000000000000000000000000000000000000000000000000000000000000000000000000000000000000000000000000000000000000000000000000000000000000000000000000000000000000000000000000000000000000000000000000000000000000000000000000000000000000000000000000000000000000000000000000000000000000000000000000000000000000000000000000000000000000000000000000000000000000000000000000000000000000000000",
      "type": "0x2",
      "transactionHash": "0xc9ca010d8229711dea088df5c2da1403efcf1d52f07216c5ede7701f05d75fae",
      "transactionIndex": "0xd7",
      "blockHash": "0x1553131455e94df672b3a993fd6ac6e29309e0415032ce74cf7d60095b06ec6a",
      "blockNumber": "0x60fb04",
      "gasUsed": "0x7899",
      "effectiveGasPrice": "0x772f9ff6a",
      "from": "0x4f472991794c32aac39533d673e0669be70a80cf",
      "to": "0x468b629bc67c22c179d847e33151888b42dbc4b7",
      "contractAddress": null
    },
    {
      "status": "0x1",
      "cumulativeGasUsed": "0x1adc174",
      "logs": [],
      "logsBloom": "0x00000000000000000000000000000000000000000000000000000000000000000000000000000000000000000000000000000000000000000000000000000000000000000000000000000000000000000000000000000000000000000000000000000000000000000000000000000000000000000000000000000000000000000000000000000000000000000000000000000000000000000000000000000000000000000000000000000000000000000000000000000000000000000000000000000000000000000000000000000000000000000000000000000000000000000000000000000000000000000000000000000000000000000000000000000000",
      "type": "0x2",
      "transactionHash": "0x431d1a0348494be49a2ebaf59db50af3042844e1ad86c8c5b8c0e01046a73874",
      "transactionIndex": "0xd8",
      "blockHash": "0x1553131455e94df672b3a993fd6ac6e29309e0415032ce74cf7d60095b06ec6a",
      "blockNumber": "0x60fb04",
      "gasUsed": "0x71be",
      "effectiveGasPrice": "0x772f9ff6a",
      "from": "0x4f472991794c32aac39533d673e0669be70a80cf",
      "to": "0x9d29d33d4329640e96cc259e141838eb3eb2f1d9",
      "contractAddress": null
    },
    {
      "status": "0x1",
      "cumulativeGasUsed": "0x1ae9311",
      "logs": [],
      "logsBloom": "0x00000000000000000000000000000000000000000000000000000000000000000000000000000000000000000000000000000000000000000000000000000000000000000000000000000000000000000000000000000000000000000000000000000000000000000000000000000000000000000000000000000000000000000000000000000000000000000000000000000000000000000000000000000000000000000000000000000000000000000000000000000000000000000000000000000000000000000000000000000000000000000000000000000000000000000000000000000000000000000000000000000000000000000000000000000000",
      "type": "0x2",
      "transactionHash": "0x5d02cc20d60d9963d855db1c9226b97d0dc12048060c8da1700a3a9fd9b4b272",
      "transactionIndex": "0xd9",
      "blockHash": "0x1553131455e94df672b3a993fd6ac6e29309e0415032ce74cf7d60095b06ec6a",
      "blockNumber": "0x60fb04",
      "gasUsed": "0xd19d",
      "effectiveGasPrice": "0x772f9ff6a",
      "from": "0x4f472991794c32aac39533d673e0669be70a80cf",
      "to": "0x9d29d33d4329640e96cc259e141838eb3eb2f1d9",
      "contractAddress": null
    }
  ],
  "libraries": [],
  "pending": [],
  "returns": {},
  "timestamp": 1721644466,
  "chain": 11155111,
  "commit": "3900b0c"
}