{
  "transactions": [
    {
      "hash": "0x8cb38edd1f68bff95186adf72c4d91a55048ced1036b60c1a1525d1d683c2864",
      "transactionType": "CALL",
      "contractName": null,
      "contractAddress": "0x9d29d33d4329640e96cc259e141838eb3eb2f1d9",
      "function": "contribute()",
      "arguments": [],
      "transaction": {
        "from": "0x4f472991794c32aac39533d673e0669be70a80cf",
        "to": "0x9d29d33d4329640e96cc259e141838eb3eb2f1d9",
        "gas": "0xafca",
        "value": "0x1c6bf52634000",
        "input": "0xd7bb99ba",
        "nonce": "0x210",
        "chainId": "0xaa36a7"
      },
      "additionalContracts": [],
      "isFixedGasLimit": false
    },
    {
      "hash": "0x389e18579c1ea5fa4205f1edfac89d8c7cb51f0f71ec22348665f75c7d5d9775",
      "transactionType": "CALL",
      "contractName": null,
      "contractAddress": "0x9d29d33d4329640e96cc259e141838eb3eb2f1d9",
      "function": "flip(bool)",
      "arguments": [
        "false"
      ],
      "transaction": {
        "from": "0x4f472991794c32aac39533d673e0669be70a80cf",
        "to": "0x9d29d33d4329640e96cc259e141838eb3eb2f1d9",
        "gas": "0xce2d",
        "value": "0x0",
        "input": "0x1d263f670000000000000000000000000000000000000000000000000000000000000000",
        "nonce": "0x211",
        "chainId": "0xaa36a7"
      },
      "additionalContracts": [],
      "isFixedGasLimit": false
    },
    {
      "hash": "0x58b9fbb5065e50f34db26c253eb1106ba4250b6a1a2c97449eba04680757a22d",
      "transactionType": "CREATE",
      "contractName": "AddPointProxy",
      "contractAddress": "0xf864f2f154e0ad320afcd71cd1378d31aecf5374",
      "function": null,
      "arguments": [
        "0x9D29D33d4329640e96cC259E141838EB3EB2f1d9"
      ],
      "transaction": {
        "from": "0x4f472991794c32aac39533d673e0669be70a80cf",
        "gas": "0x29f08",
        "value": "0x0",
        "input": "0x608060405234801561001057600080fd5b506040516101633803806101638339818101604052602081101561003357600080fd5b5051600080546001600160a01b039092166001600160a01b031990921691909117905560ff806100646000396000f3fe6080604052348015600f57600080fd5b506004361060325760003560e01c80636121061e146037578063eeeb7a3614603f575b600080fd5b603d6061565b005b604560ba565b604080516001600160a01b039092168252519081900360200190f35b60008054604080516335f9cd5560e11b815290516001600160a01b0390921692636bf39aaa9260048084019382900301818387803b15801560a157600080fd5b505af115801560b4573d6000803e3d6000fd5b50505050565b6000546001600160a01b03168156fea264697066735822122056582e4cdb0092269ca1ae47aa2e4143e993bc806a7d6c7b252f51a22ce9f57d64736f6c634300070000330000000000000000000000009d29d33d4329640e96cc259e141838eb3eb2f1d9",
        "nonce": "0x212",
        "chainId": "0xaa36a7"
      },
      "additionalContracts": [],
      "isFixedGasLimit": false
    },
    {
      "hash": "0xc74c72bb8705c8a273595ca6ee8cba6bf0727a35c9b0633026b5ad1cc358b385",
      "transactionType": "CALL",
      "contractName": "AddPointProxy",
      "contractAddress": "0xf864f2f154e0ad320afcd71cd1378d31aecf5374",
      "function": "callAddPoint()",
      "arguments": [],
      "transaction": {
        "from": "0x4f472991794c32aac39533d673e0669be70a80cf",
        "to": "0xf864f2f154e0ad320afcd71cd1378d31aecf5374",
        "gas": "0xb05f",
        "value": "0x0",
        "input": "0x6121061e",
        "nonce": "0x213",
        "chainId": "0xaa36a7"
      },
      "additionalContracts": [],
      "isFixedGasLimit": false
    },
    {
      "hash": "0x463be61b7251b3b209bb99faa7d62a1a3252816b9b5c2291445592cbf46f7900",
      "transactionType": "CALL",
      "contractName": null,
      "contractAddress": "0x9d29d33d4329640e96cc259e141838eb3eb2f1d9",
      "function": "transfer(address,uint256)",
      "arguments": [
        "0x4bc1cAEDBf984D34404C4D0BF2178DAB1a9Bf026",
        "1"
      ],
      "transaction": {
        "from": "0x4f472991794c32aac39533d673e0669be70a80cf",
        "to": "0x9d29d33d4329640e96cc259e141838eb3eb2f1d9",
        "gas": "0xc61b",
        "value": "0x0",
        "input": "0xa9059cbb0000000000000000000000004bc1caedbf984d34404c4d0bf2178dab1a9bf0260000000000000000000000000000000000000000000000000000000000000001",
        "nonce": "0x214",
        "chainId": "0xaa36a7"
      },
      "additionalContracts": [],
      "isFixedGasLimit": false
    }
  ],
  "receipts": [
    {
      "status": "0x1",
      "cumulativeGasUsed": "0x68db07",
      "logs": [],
      "logsBloom": "0x00000000000000000000000000000000000000000000000000000000000000000000000000000000000000000000000000000000000000000000000000000000000000000000000000000000000000000000000000000000000000000000000000000000000000000000000000000000000000000000000000000000000000000000000000000000000000000000000000000000000000000000000000000000000000000000000000000000000000000000000000000000000000000000000000000000000000000000000000000000000000000000000000000000000000000000000000000000000000000000000000000000000000000000000000000000",
      "type": "0x2",
      "transactionHash": "0x8cb38edd1f68bff95186adf72c4d91a55048ced1036b60c1a1525d1d683c2864",
      "transactionIndex": "0x37",
      "blockHash": "0x9bd161dac7b878349469d0b5ec20cacbc1f8445a2cc15f26c95cff6b8560535a",
      "blockNumber": "0x60fa95",
      "gasUsed": "0x7833",
      "effectiveGasPrice": "0x65b01e887",
      "from": "0x4f472991794c32aac39533d673e0669be70a80cf",
      "to": "0x9d29d33d4329640e96cc259e141838eb3eb2f1d9",
      "contractAddress": null
    },
    {
      "status": "0x1",
      "cumulativeGasUsed": "0x696801",
      "logs": [],
      "logsBloom": "0x00000000000000000000000000000000000000000000000000000000000000000000000000000000000000000000000000000000000000000000000000000000000000000000000000000000000000000000000000000000000000000000000000000000000000000000000000000000000000000000000000000000000000000000000000000000000000000000000000000000000000000000000000000000000000000000000000000000000000000000000000000000000000000000000000000000000000000000000000000000000000000000000000000000000000000000000000000000000000000000000000000000000000000000000000000000",
      "type": "0x2",
      "transactionHash": "0x389e18579c1ea5fa4205f1edfac89d8c7cb51f0f71ec22348665f75c7d5d9775",
      "transactionIndex": "0x38",
      "blockHash": "0x9bd161dac7b878349469d0b5ec20cacbc1f8445a2cc15f26c95cff6b8560535a",
      "blockNumber": "0x60fa95",
      "gasUsed": "0x8cfa",
      "effectiveGasPrice": "0x65b01e887",
      "from": "0x4f472991794c32aac39533d673e0669be70a80cf",
      "to": "0x9d29d33d4329640e96cc259e141838eb3eb2f1d9",
      "contractAddress": null
    },
    {
      "status": "0x1",
      "cumulativeGasUsed": "0x6b6c49",
      "logs": [],
      "logsBloom": "0x00000000000000000000000000000000000000000000000000000000000000000000000000000000000000000000000000000000000000000000000000000000000000000000000000000000000000000000000000000000000000000000000000000000000000000000000000000000000000000000000000000000000000000000000000000000000000000000000000000000000000000000000000000000000000000000000000000000000000000000000000000000000000000000000000000000000000000000000000000000000000000000000000000000000000000000000000000000000000000000000000000000000000000000000000000000",
      "type": "0x2",
      "transactionHash": "0x58b9fbb5065e50f34db26c253eb1106ba4250b6a1a2c97449eba04680757a22d",
      "transactionIndex": "0x39",
      "blockHash": "0x9bd161dac7b878349469d0b5ec20cacbc1f8445a2cc15f26c95cff6b8560535a",
      "blockNumber": "0x60fa95",
      "gasUsed": "0x20448",
      "effectiveGasPrice": "0x65b01e887",
      "from": "0x4f472991794c32aac39533d673e0669be70a80cf",
      "to": null,
      "contractAddress": "0xf864f2f154e0ad320afcd71cd1378d31aecf5374"
    },
    {
      "status": "0x1",
      "cumulativeGasUsed": "0x6d221a",
      "logs": [],
      "logsBloom": "0x00000000000000000000000000000000000000000000000000000000000000000000000000000000000000000000000000000000000000000000000000000000000000000000000000000000000000000000000000000000000000000000000000000000000000000000000000000000000000000000000000000000000000000000000000000000000000000000000000000000000000000000000000000000000000000000000000000000000000000000000000000000000000000000000000000000000000000000000000000000000000000000000000000000000000000000000000000000000000000000000000000000000000000000000000000000",
      "type": "0x2",
      "transactionHash": "0xc74c72bb8705c8a273595ca6ee8cba6bf0727a35c9b0633026b5ad1cc358b385",
      "transactionIndex": "0x3b",
      "blockHash": "0x9bd161dac7b878349469d0b5ec20cacbc1f8445a2cc15f26c95cff6b8560535a",
      "blockNumber": "0x60fa95",
      "gasUsed": "0x7899",
      "effectiveGasPrice": "0x65b01e887",
      "from": "0x4f472991794c32aac39533d673e0669be70a80cf",
      "to": "0xf864f2f154e0ad320afcd71cd1378d31aecf5374",
      "contractAddress": null
    },
    {
      "status": "0x1",
      "cumulativeGasUsed": "0x6db188",
      "logs": [],
      "logsBloom": "0x00000000000000000000000000000000000000000000000000000000000000000000000000000000000000000000000000000000000000000000000000000000000000000000000000000000000000000000000000000000000000000000000000000000000000000000000000000000000000000000000000000000000000000000000000000000000000000000000000000000000000000000000000000000000000000000000000000000000000000000000000000000000000000000000000000000000000000000000000000000000000000000000000000000000000000000000000000000000000000000000000000000000000000000000000000000",
      "type": "0x2",
      "transactionHash": "0x463be61b7251b3b209bb99faa7d62a1a3252816b9b5c2291445592cbf46f7900",
      "transactionIndex": "0x3c",
      "blockHash": "0x9bd161dac7b878349469d0b5ec20cacbc1f8445a2cc15f26c95cff6b8560535a",
      "blockNumber": "0x60fa95",
      "gasUsed": "0x8f6e",
      "effectiveGasPrice": "0x65b01e887",
      "from": "0x4f472991794c32aac39533d673e0669be70a80cf",
      "to": "0x9d29d33d4329640e96cc259e141838eb3eb2f1d9",
      "contractAddress": null
    }
  ],
  "libraries": [],
  "pending": [],
  "returns": {},
  "timestamp": 1721642728,
  "chain": 11155111,
  "commit": "3900b0c"
}