{
  "transactions": [
    {
      "hash": "0xadc5d72d7b7ea7ef15a6df1121701e2a5941c62015ff288bbb361a58516dc2ff",
      "transactionType": "CALL",
      "contractName": null,
      "contractAddress": "0x9d29d33d4329640e96cc259e141838eb3eb2f1d9",
      "function": "contribute()",
      "arguments": [],
      "transaction": {
        "from": "0x4f472991794c32aac39533d673e0669be70a80cf",
        "to": "0x9d29d33d4329640e96cc259e141838eb3eb2f1d9",
        "gas": "0xafca",
        "value": "0x1c6bf52634000",
        "input": "0xd7bb99ba",
        "nonce": "0x237",
        "chainId": "0xaa36a7"
      },
      "additionalContracts": [],
      "isFixedGasLimit": false
    },
    {
      "hash": "0x4f518a5ca2dde4aa7cbd5851a6d62c44d89f9cc2267e23863573cf20e31e862e",
      "transactionType": "CALL",
      "contractName": null,
      "contractAddress": "0x9d29d33d4329640e96cc259e141838eb3eb2f1d9",
      "function": "flip(bool)",
      "arguments": [
        "false"
      ],
      "transaction": {
        "from": "0x4f472991794c32aac39533d673e0669be70a80cf",
        "to": "0x9d29d33d4329640e96cc259e141838eb3eb2f1d9",
        "gas": "0xce2d",
        "value": "0x0",
        "input": "0x1d263f670000000000000000000000000000000000000000000000000000000000000000",
        "nonce": "0x238",
        "chainId": "0xaa36a7"
      },
      "additionalContracts": [],
      "isFixedGasLimit": false
    },
    {
      "hash": "0x44ceba68074c9be16cb51c7e364397eaa761b4692f71c1341600fd537ce04adb",
      "transactionType": "CREATE",
      "contractName": "AddPointProxy",
      "contractAddress": "0xa2dff3733708728bb2dde838ed4f64d80d44d766",
      "function": null,
      "arguments": [
        "0x9D29D33d4329640e96cC259E141838EB3EB2f1d9"
      ],
      "transaction": {
        "from": "0x4f472991794c32aac39533d673e0669be70a80cf",
        "gas": "0x29f18",
        "value": "0x0",
        "input": "0x608060405234801561001057600080fd5b506040516101633803806101638339818101604052602081101561003357600080fd5b5051600080546001600160a01b039092166001600160a01b031990921691909117905560ff806100646000396000f3fe6080604052348015600f57600080fd5b506004361060325760003560e01c80636121061e146037578063eeeb7a3614603f575b600080fd5b603d6061565b005b604560ba565b604080516001600160a01b039092168252519081900360200190f35b60008054604080516335f9cd5560e11b815290516001600160a01b0390921692636bf39aaa9260048084019382900301818387803b15801560a157600080fd5b505af115801560b4573d6000803e3d6000fd5b50505050565b6000546001600160a01b03168156fea2646970667358221220c7ffab77860aa5565487550f3df98218d4758f0b1ead6d96ec3787a32643aa9764736f6c634300070000330000000000000000000000009d29d33d4329640e96cc259e141838eb3eb2f1d9",
        "nonce": "0x239",
        "chainId": "0xaa36a7"
      },
      "additionalContracts": [],
      "isFixedGasLimit": false
    },
    {
      "hash": "0xdd8cde57ea93803cdc17c686e71155ecdf73c8224d6bf90aa9605ba847846fee",
      "transactionType": "CALL",
      "contractName": "AddPointProxy",
      "contractAddress": "0xa2dff3733708728bb2dde838ed4f64d80d44d766",
      "function": "callAddPoint()",
      "arguments": [],
      "transaction": {
        "from": "0x4f472991794c32aac39533d673e0669be70a80cf",
        "to": "0xa2dff3733708728bb2dde838ed4f64d80d44d766",
        "gas": "0xb05f",
        "value": "0x0",
        "input": "0x6121061e",
        "nonce": "0x23a",
        "chainId": "0xaa36a7"
      },
      "additionalContracts": [],
      "isFixedGasLimit": false
    },
    {
      "hash": "0xafb29fbb7d36227d43840abefe3bdf3a460c290858ec5011018241ed113a7d35",
      "transactionType": "CALL",
      "contractName": null,
      "contractAddress": "0x9d29d33d4329640e96cc259e141838eb3eb2f1d9",
      "function": "transfer(address,uint256)",
      "arguments": [
        "0x4F472991794c32aac39533d673e0669bE70a80cf",
        "1"
      ],
      "transaction": {
        "from": "0x4f472991794c32aac39533d673e0669be70a80cf",
        "to": "0x9d29d33d4329640e96cc259e141838eb3eb2f1d9",
        "gas": "0x9d1a",
        "value": "0x0",
        "input": "0xa9059cbb0000000000000000000000004f472991794c32aac39533d673e0669be70a80cf0000000000000000000000000000000000000000000000000000000000000001",
        "nonce": "0x23b",
        "chainId": "0xaa36a7"
      },
      "additionalContracts": [],
      "isFixedGasLimit": false
    },
    {
      "hash": "0xd357fd287d31c5d09855c3f0f6e73e20152c5ba5b29817fa3dba86ed51d78902",
      "transactionType": "CALL",
      "contractName": null,
      "contractAddress": "0x9d29d33d4329640e96cc259e141838eb3eb2f1d9",
      "function": "sendKey(bytes16)",
      "arguments": [
        "0x4cded594c37730434fcf53dd25e29ab500000000000000000000000000000000"
      ],
      "transaction": {
        "from": "0x4f472991794c32aac39533d673e0669be70a80cf",
        "to": "0x9d29d33d4329640e96cc259e141838eb3eb2f1d9",
        "gas": "0xa187",
        "value": "0x0",
        "input": "0x9d3ad91a4cded594c37730434fcf53dd25e29ab500000000000000000000000000000000",
        "nonce": "0x23c",
        "chainId": "0xaa36a7"
      },
      "additionalContracts": [],
      "isFixedGasLimit": false
    },
    {
      "hash": "0xa8eeb766df596c1f6fbd9c0daa63642643a73ab2da6a70dbcaba99eb04bab36e",
      "transactionType": "CALL",
      "contractName": null,
      "contractAddress": "0x9d29d33d4329640e96cc259e141838eb3eb2f1d9",
      "function": null,
      "arguments": null,
      "transaction": {
        "from": "0x4f472991794c32aac39533d673e0669be70a80cf",
        "to": "0x9d29d33d4329640e96cc259e141838eb3eb2f1d9",
        "gas": "0x11e83",
        "value": "0x38d7ea4c68000",
        "input": "0x",
        "nonce": "0x23d",
        "chainId": "0xaa36a7"
      },
      "additionalContracts": [],
      "isFixedGasLimit": false
    }
  ],
  "receipts": [
    {
      "status": "0x1",
      "cumulativeGasUsed": "0xd72074",
      "logs": [],
      "logsBloom": "0x00000000000000000000000000000000000000000000000000000000000000000000000000000000000000000000000000000000000000000000000000000000000000000000000000000000000000000000000000000000000000000000000000000000000000000000000000000000000000000000000000000000000000000000000000000000000000000000000000000000000000000000000000000000000000000000000000000000000000000000000000000000000000000000000000000000000000000000000000000000000000000000000000000000000000000000000000000000000000000000000000000000000000000000000000000000",
      "type": "0x2",
      "transactionHash": "0xadc5d72d7b7ea7ef15a6df1121701e2a5941c62015ff288bbb361a58516dc2ff",
      "transactionIndex": "0x7c",
      "blockHash": "0x35f3f8a195d3e6daf3735fc7bdd25949d2ba3a1f49b34f62b81bb035038f2658",
      "blockNumber": "0x60fb3a",
      "gasUsed": "0x7833",
      "effectiveGasPrice": "0x584605396",
      "from": "0x4f472991794c32aac39533d673e0669be70a80cf",
      "to": "0x9d29d33d4329640e96cc259e141838eb3eb2f1d9",
      "contractAddress": null
    },
    {
      "status": "0x1",
      "cumulativeGasUsed": "0xd98967",
      "logs": [],
      "logsBloom": "0x00000000000000000000000000000000000000000000000000000000000000000000000000000000000000000000000000000000000000000000000000000000000000000000000000000000000000000000000000000000000000000000000000000000000000000000000000000000000000000000000000000000000000000000000000000000000000000000000000000000000000000000000000000000000000000000000000000000000000000000000000000000000000000000000000000000000000000000000000000000000000000000000000000000000000000000000000000000000000000000000000000000000000000000000000000000",
      "type": "0x2",
      "transactionHash": "0x44ceba68074c9be16cb51c7e364397eaa761b4692f71c1341600fd537ce04adb",
      "transactionIndex": "0x7e",
      "blockHash": "0x35f3f8a195d3e6daf3735fc7bdd25949d2ba3a1f49b34f62b81bb035038f2658",
      "blockNumber": "0x60fb3a",
      "gasUsed": "0x20454",
      "effectiveGasPrice": "0x584605396",
      "from": "0x4f472991794c32aac39533d673e0669be70a80cf",
      "to": null,
      "contractAddress": "0xa2dff3733708728bb2dde838ed4f64d80d44d766"
    },
    {
      "status": "0x1",
      "cumulativeGasUsed": "0xda0200",
      "logs": [],
      "logsBloom": "0x00000000000000000000000000000000000000000000000000000000000000000000000000000000000000000000000000000000000000000000000000000000000000000000000000000000000000000000000000000000000000000000000000000000000000000000000000000000000000000000000000000000000000000000000000000000000000000000000000000000000000000000000000000000000000000000000000000000000000000000000000000000000000000000000000000000000000000000000000000000000000000000000000000000000000000000000000000000000000000000000000000000000000000000000000000000",
      "type": "0x2",
      "transactionHash": "0xdd8cde57ea93803cdc17c686e71155ecdf73c8224d6bf90aa9605ba847846fee",
      "transactionIndex": "0x7f",
      "blockHash": "0x35f3f8a195d3e6daf3735fc7bdd25949d2ba3a1f49b34f62b81bb035038f2658",
      "blockNumber": "0x60fb3a",
      "gasUsed": "0x7899",
      "effectiveGasPrice": "0x584605396",
      "from": "0x4f472991794c32aac39533d673e0669be70a80cf",
      "to": "0xa2dff3733708728bb2dde838ed4f64d80d44d766",
      "contractAddress": null
    },
    {
      "status": "0x1",
      "cumulativeGasUsed": "0xda73be",
      "logs": [],
      "logsBloom": "0x00000000000000000000000000000000000000000000000000000000000000000000000000000000000000000000000000000000000000000000000000000000000000000000000000000000000000000000000000000000000000000000000000000000000000000000000000000000000000000000000000000000000000000000000000000000000000000000000000000000000000000000000000000000000000000000000000000000000000000000000000000000000000000000000000000000000000000000000000000000000000000000000000000000000000000000000000000000000000000000000000000000000000000000000000000000",
      "type": "0x2",
      "transactionHash": "0xafb29fbb7d36227d43840abefe3bdf3a460c290858ec5011018241ed113a7d35",
      "transactionIndex": "0x80",
      "blockHash": "0x35f3f8a195d3e6daf3735fc7bdd25949d2ba3a1f49b34f62b81bb035038f2658",
      "blockNumber": "0x60fb3a",
      "gasUsed": "0x71be",
      "effectiveGasPrice": "0x584605396",
      "from": "0x4f472991794c32aac39533d673e0669be70a80cf",
      "to": "0x9d29d33d4329640e96cc259e141838eb3eb2f1d9",
      "contractAddress": null
    },
    {
      "status": "0x1",
      "cumulativeGasUsed": "0xdae231",
      "logs": [],
      "logsBloom": "0x00000000000000000000000000000000000000000000000000000000000000000000000000000000000000000000000000000000000000000000000000000000000000000000000000000000000000000000000000000000000000000000000000000000000000000000000000000000000000000000000000000000000000000000000000000000000000000000000000000000000000000000000000000000000000000000000000000000000000000000000000000000000000000000000000000000000000000000000000000000000000000000000000000000000000000000000000000000000000000000000000000000000000000000000000000000",
      "type": "0x2",
      "transactionHash": "0xd357fd287d31c5d09855c3f0f6e73e20152c5ba5b29817fa3dba86ed51d78902",
      "transactionIndex": "0x81",
      "blockHash": "0x35f3f8a195d3e6daf3735fc7bdd25949d2ba3a1f49b34f62b81bb035038f2658",
      "blockNumber": "0x60fb3a",
      "gasUsed": "0x6e73",
      "effectiveGasPrice": "0x584605396",
      "from": "0x4f472991794c32aac39533d673e0669be70a80cf",
      "to": "0x9d29d33d4329640e96cc259e141838eb3eb2f1d9",
      "contractAddress": null
    },
    {
      "status": "0x1",
      "cumulativeGasUsed": "0xdbb1a0",
      "logs": [],
      "logsBloom": "0x00000000000000000000000000000000000000000000000000000000000000000000000000000000000000000000000000000000000000000000000000000000000000000000000000000000000000000000000000000000000000000000000000000000000000000000000000000000000000000000000000000000000000000000000000000000000000000000000000000000000000000000000000000000000000000000000000000000000000000000000000000000000000000000000000000000000000000000000000000000000000000000000000000000000000000000000000000000000000000000000000000000000000000000000000000000",
      "type": "0x2",
      "transactionHash": "0xa8eeb766df596c1f6fbd9c0daa63642643a73ab2da6a70dbcaba99eb04bab36e",
      "transactionIndex": "0x82",
      "blockHash": "0x35f3f8a195d3e6daf3735fc7bdd25949d2ba3a1f49b34f62b81bb035038f2658",
      "blockNumber": "0x60fb3a",
      "gasUsed": "0xcf6f",
      "effectiveGasPrice": "0x584605396",
      "from": "0x4f472991794c32aac39533d673e0669be70a80cf",
      "to": "0x9d29d33d4329640e96cc259e141838eb3eb2f1d9",
      "contractAddress": null
    }
  ],
  "libraries": [],
  "pending": [],
  "returns": {},
  "timestamp": 1721645296,
  "chain": 11155111,
  "commit": "3900b0c"
}