{
  "transactions": [
    {
      "hash": "0x5c5c9430f64a744d310120e2bd10b730dc7f84576acc65c913a5b5a56aaff7e3",
      "transactionType": "CALL",
      "contractName": null,
      "contractAddress": "0x9d29d33d4329640e96cc259e141838eb3eb2f1d9",
      "function": "contribute()",
      "arguments": [],
      "transaction": {
        "from": "0x4f472991794c32aac39533d673e0669be70a80cf",
        "to": "0x9d29d33d4329640e96cc259e141838eb3eb2f1d9",
        "gas": "0xafca",
        "value": "0x1c6bf52634000",
        "input": "0xd7bb99ba",
        "nonce": "0x23e",
        "chainId": "0xaa36a7"
      },
      "additionalContracts": [],
      "isFixedGasLimit": false
    },
    {
      "hash": "0xbbbb85194e13d1345bfcee4cb75606b2b0593cc766b8b10ffb34f6a8fcde3da1",
      "transactionType": "CALL",
      "contractName": null,
      "contractAddress": "0x9d29d33d4329640e96cc259e141838eb3eb2f1d9",
      "function": "flip(bool)",
      "arguments": [
        "false"
      ],
      "transaction": {
        "from": "0x4f472991794c32aac39533d673e0669be70a80cf",
        "to": "0x9d29d33d4329640e96cc259e141838eb3eb2f1d9",
        "gas": "0xce2d",
        "value": "0x0",
        "input": "0x1d263f670000000000000000000000000000000000000000000000000000000000000000",
        "nonce": "0x23f",
        "chainId": "0xaa36a7"
      },
      "additionalContracts": [],
      "isFixedGasLimit": false
    },
    {
      "hash": "0x7ed177ecfc17df5577a6d910872f844e33ed0f23652f143cb53071a13d63a0e7",
      "transactionType": "CREATE",
      "contractName": "AddPointProxy",
      "contractAddress": "0x7c4954e4190948791594cb0affb423d246aa8807",
      "function": null,
      "arguments": [
        "0x9D29D33d4329640e96cC259E141838EB3EB2f1d9"
      ],
      "transaction": {
        "from": "0x4f472991794c32aac39533d673e0669be70a80cf",
        "gas": "0x29f18",
        "value": "0x0",
        "input": "0x608060405234801561001057600080fd5b506040516101633803806101638339818101604052602081101561003357600080fd5b5051600080546001600160a01b039092166001600160a01b031990921691909117905560ff806100646000396000f3fe6080604052348015600f57600080fd5b506004361060325760003560e01c80636121061e146037578063eeeb7a3614603f575b600080fd5b603d6061565b005b604560ba565b604080516001600160a01b039092168252519081900360200190f35b60008054604080516335f9cd5560e11b815290516001600160a01b0390921692636bf39aaa9260048084019382900301818387803b15801560a157600080fd5b505af115801560b4573d6000803e3d6000fd5b50505050565b6000546001600160a01b03168156fea2646970667358221220e98b54d1f46357f485cafbebc879f8e34f611036ff15d162750fc8616ba703cd64736f6c634300070000330000000000000000000000009d29d33d4329640e96cc259e141838eb3eb2f1d9",
        "nonce": "0x240",
        "chainId": "0xaa36a7"
      },
      "additionalContracts": [],
      "isFixedGasLimit": false
    },
    {
      "hash": "0xacd3db10b0af2e46d4ad8d3cc5779a479fa4eca751813100eaa7bc076ff9e382",
      "transactionType": "CALL",
      "contractName": "AddPointProxy",
      "contractAddress": "0x7c4954e4190948791594cb0affb423d246aa8807",
      "function": "callAddPoint()",
      "arguments": [],
      "transaction": {
        "from": "0x4f472991794c32aac39533d673e0669be70a80cf",
        "to": "0x7c4954e4190948791594cb0affb423d246aa8807",
        "gas": "0xb05f",
        "value": "0x0",
        "input": "0x6121061e",
        "nonce": "0x241",
        "chainId": "0xaa36a7"
      },
      "additionalContracts": [],
      "isFixedGasLimit": false
    },
    {
      "hash": "0x93c1b86469f7eadfa8d0d7e0bc5ff22d4c19b25a892745d65dad7a037cb2e7b7",
      "transactionType": "CALL",
      "contractName": null,
      "contractAddress": "0x9d29d33d4329640e96cc259e141838eb3eb2f1d9",
      "function": "transfer(address,uint256)",
      "arguments": [
        "0x4F472991794c32aac39533d673e0669bE70a80cf",
        "1"
      ],
      "transaction": {
        "from": "0x4f472991794c32aac39533d673e0669be70a80cf",
        "to": "0x9d29d33d4329640e96cc259e141838eb3eb2f1d9",
        "gas": "0x9d1a",
        "value": "0x0",
        "input": "0xa9059cbb0000000000000000000000004f472991794c32aac39533d673e0669be70a80cf0000000000000000000000000000000000000000000000000000000000000001",
        "nonce": "0x242",
        "chainId": "0xaa36a7"
      },
      "additionalContracts": [],
      "isFixedGasLimit": false
    },
    {
      "hash": "0x6713efb39ef5e72b0edb4aeb421fbac22c39e7d98687ba88a7f6e96eb7dfd537",
      "transactionType": "CALL",
      "contractName": null,
      "contractAddress": "0x9d29d33d4329640e96cc259e141838eb3eb2f1d9",
      "function": "sendKey(bytes16)",
      "arguments": [
        "0x4cded594c37730434fcf53dd25e29ab500000000000000000000000000000000"
      ],
      "transaction": {
        "from": "0x4f472991794c32aac39533d673e0669be70a80cf",
        "to": "0x9d29d33d4329640e96cc259e141838eb3eb2f1d9",
        "gas": "0xa187",
        "value": "0x0",
        "input": "0x9d3ad91a4cded594c37730434fcf53dd25e29ab500000000000000000000000000000000",
        "nonce": "0x243",
        "chainId": "0xaa36a7"
      },
      "additionalContracts": [],
      "isFixedGasLimit": false
    },
    {
      "hash": "0xf71e982a250ae1c9ead0d74c8ba0d4c8f158c02db43017efa7473551eeb0842a",
      "transactionType": "CALL",
      "contractName": null,
      "contractAddress": "0x9d29d33d4329640e96cc259e141838eb3eb2f1d9",
      "function": null,
      "arguments": null,
      "transaction": {
        "from": "0x4f472991794c32aac39533d673e0669be70a80cf",
        "to": "0x9d29d33d4329640e96cc259e141838eb3eb2f1d9",
        "gas": "0x958a",
        "value": "0x38d7ea4c68000",
        "input": "0x",
        "nonce": "0x244",
        "chainId": "0xaa36a7"
      },
      "additionalContracts": [],
      "isFixedGasLimit": false
    },
    {
      "hash": "0x120b690ac98146c6373e6a21b0884bb5965f7744b72b6a20574aa2dadacf2f94",
      "transactionType": "CALL",
      "contractName": null,
      "contractAddress": "0x9d29d33d4329640e96cc259e141838eb3eb2f1d9",
      "function": "sendPassword(bytes32)",
      "arguments": [
        "0xde241fe7f783f2ed343248c0762dade0cf4eea6ed49dfe2f9f1267483c9eade8"
      ],
      "transaction": {
        "from": "0x4f472991794c32aac39533d673e0669be70a80cf",
        "to": "0x9d29d33d4329640e96cc259e141838eb3eb2f1d9",
        "gas": "0x1220d",
        "value": "0x0",
        "input": "0x5c8d2c38de241fe7f783f2ed343248c0762dade0cf4eea6ed49dfe2f9f1267483c9eade8",
        "nonce": "0x245",
        "chainId": "0xaa36a7"
      },
      "additionalContracts": [],
      "isFixedGasLimit": false
    }
  ],
  "receipts": [
    {
      "status": "0x1",
      "cumulativeGasUsed": "0x9111ac",
      "logs": [],
      "logsBloom": "0x00000000000000000000000000000000000000000000000000000000000000000000000000000000000000000000000000000000000000000000000000000000000000000000000000000000000000000000000000000000000000000000000000000000000000000000000000000000000000000000000000000000000000000000000000000000000000000000000000000000000000000000000000000000000000000000000000000000000000000000000000000000000000000000000000000000000000000000000000000000000000000000000000000000000000000000000000000000000000000000000000000000000000000000000000000000",
      "type": "0x2",
      "transactionHash": "0x5c5c9430f64a744d310120e2bd10b730dc7f84576acc65c913a5b5a56aaff7e3",
      "transactionIndex": "0x59",
      "blockHash": "0x21e5c782dc729b225f97b307262fa78676f288af4f2bcfe9d8590d3e43b60081",
      "blockNumber": "0x60fb5d",
      "gasUsed": "0x7833",
      "effectiveGasPrice": "0x5df0f879f",
      "from": "0x4f472991794c32aac39533d673e0669be70a80cf",
      "to": "0x9d29d33d4329640e96cc259e141838eb3eb2f1d9",
      "contractAddress": null
    },
    {
      "status": "0x1",
      "cumulativeGasUsed": "0x9229cf",
      "logs": [],
      "logsBloom": "0x00000000000000000000000000000000000000000000000000000000000000000000000000000000000000000000000000000000000000000000000000000000000000000000000000000000000000000000000000000000000000000000000000000000000000000000000000000000000000000000000000000000000000000000000000000000000000000000000000000000000000000000000000000000000000000000000000000000000000000000000000000000000000000000000000000000000000000000000000000000000000000000000000000000000000000000000000000000000000000000000000000000000000000000000000000000",
      "type": "0x2",
      "transactionHash": "0xbbbb85194e13d1345bfcee4cb75606b2b0593cc766b8b10ffb34f6a8fcde3da1",
      "transactionIndex": "0x5b",
      "blockHash": "0x21e5c782dc729b225f97b307262fa78676f288af4f2bcfe9d8590d3e43b60081",
      "blockNumber": "0x60fb5d",
      "gasUsed": "0x8cfa",
      "effectiveGasPrice": "0x5df0f879f",
      "from": "0x4f472991794c32aac39533d673e0669be70a80cf",
      "to": "0x9d29d33d4329640e96cc259e141838eb3eb2f1d9",
      "contractAddress": null
    },
    {
      "status": "0x1",
      "cumulativeGasUsed": "0x942e23",
      "logs": [],
      "logsBloom": "0x00000000000000000000000000000000000000000000000000000000000000000000000000000000000000000000000000000000000000000000000000000000000000000000000000000000000000000000000000000000000000000000000000000000000000000000000000000000000000000000000000000000000000000000000000000000000000000000000000000000000000000000000000000000000000000000000000000000000000000000000000000000000000000000000000000000000000000000000000000000000000000000000000000000000000000000000000000000000000000000000000000000000000000000000000000000",
      "type": "0x2",
      "transactionHash": "0x7ed177ecfc17df5577a6d910872f844e33ed0f23652f143cb53071a13d63a0e7",
      "transactionIndex": "0x5c",
      "blockHash": "0x21e5c782dc729b225f97b307262fa78676f288af4f2bcfe9d8590d3e43b60081",
      "blockNumber": "0x60fb5d",
      "gasUsed": "0x20454",
      "effectiveGasPrice": "0x5df0f879f",
      "from": "0x4f472991794c32aac39533d673e0669be70a80cf",
      "to": null,
      "contractAddress": "0x7c4954e4190948791594cb0affb423d246aa8807"
    },
    {
      "status": "0x1",
      "cumulativeGasUsed": "0x94a6bc",
      "logs": [],
      "logsBloom": "0x00000000000000000000000000000000000000000000000000000000000000000000000000000000000000000000000000000000000000000000000000000000000000000000000000000000000000000000000000000000000000000000000000000000000000000000000000000000000000000000000000000000000000000000000000000000000000000000000000000000000000000000000000000000000000000000000000000000000000000000000000000000000000000000000000000000000000000000000000000000000000000000000000000000000000000000000000000000000000000000000000000000000000000000000000000000",
      "type": "0x2",
      "transactionHash": "0xacd3db10b0af2e46d4ad8d3cc5779a479fa4eca751813100eaa7bc076ff9e382",
      "transactionIndex": "0x5d",
      "blockHash": "0x21e5c782dc729b225f97b307262fa78676f288af4f2bcfe9d8590d3e43b60081",
      "blockNumber": "0x60fb5d",
      "gasUsed": "0x7899",
      "effectiveGasPrice": "0x5df0f879f",
      "from": "0x4f472991794c32aac39533d673e0669be70a80cf",
      "to": "0x7c4954e4190948791594cb0affb423d246aa8807",
      "contractAddress": null
    },
    {
      "status": "0x1",
      "cumulativeGasUsed": "0x95187a",
      "logs": [],
      "logsBloom": "0x00000000000000000000000000000000000000000000000000000000000000000000000000000000000000000000000000000000000000000000000000000000000000000000000000000000000000000000000000000000000000000000000000000000000000000000000000000000000000000000000000000000000000000000000000000000000000000000000000000000000000000000000000000000000000000000000000000000000000000000000000000000000000000000000000000000000000000000000000000000000000000000000000000000000000000000000000000000000000000000000000000000000000000000000000000000",
      "type": "0x2",
      "transactionHash": "0x93c1b86469f7eadfa8d0d7e0bc5ff22d4c19b25a892745d65dad7a037cb2e7b7",
      "transactionIndex": "0x5e",
      "blockHash": "0x21e5c782dc729b225f97b307262fa78676f288af4f2bcfe9d8590d3e43b60081",
      "blockNumber": "0x60fb5d",
      "gasUsed": "0x71be",
      "effectiveGasPrice": "0x5df0f879f",
      "from": "0x4f472991794c32aac39533d673e0669be70a80cf",
      "to": "0x9d29d33d4329640e96cc259e141838eb3eb2f1d9",
      "contractAddress": null
    },
    {
      "status": "0x1",
      "cumulativeGasUsed": "0x9586ed",
      "logs": [],
      "logsBloom": "0x00000000000000000000000000000000000000000000000000000000000000000000000000000000000000000000000000000000000000000000000000000000000000000000000000000000000000000000000000000000000000000000000000000000000000000000000000000000000000000000000000000000000000000000000000000000000000000000000000000000000000000000000000000000000000000000000000000000000000000000000000000000000000000000000000000000000000000000000000000000000000000000000000000000000000000000000000000000000000000000000000000000000000000000000000000000",
      "type": "0x2",
      "transactionHash": "0x6713efb39ef5e72b0edb4aeb421fbac22c39e7d98687ba88a7f6e96eb7dfd537",
      "transactionIndex": "0x5f",
      "blockHash": "0x21e5c782dc729b225f97b307262fa78676f288af4f2bcfe9d8590d3e43b60081",
      "blockNumber": "0x60fb5d",
      "gasUsed": "0x6e73",
      "effectiveGasPrice": "0x5df0f879f",
      "from": "0x4f472991794c32aac39533d673e0669be70a80cf",
      "to": "0x9d29d33d4329640e96cc259e141838eb3eb2f1d9",
      "contractAddress": null
    },
    {
      "status": "0x1",
      "cumulativeGasUsed": "0x95f331",
      "logs": [],
      "logsBloom": "0x00000000000000000000000000000000000000000000000000000000000000000000000000000000000000000000000000000000000000000000000000000000000000000000000000000000000000000000000000000000000000000000000000000000000000000000000000000000000000000000000000000000000000000000000000000000000000000000000000000000000000000000000000000000000000000000000000000000000000000000000000000000000000000000000000000000000000000000000000000000000000000000000000000000000000000000000000000000000000000000000000000000000000000000000000000000",
      "type": "0x2",
      "transactionHash": "0xf71e982a250ae1c9ead0d74c8ba0d4c8f158c02db43017efa7473551eeb0842a",
      "transactionIndex": "0x60",
      "blockHash": "0x21e5c782dc729b225f97b307262fa78676f288af4f2bcfe9d8590d3e43b60081",
      "blockNumber": "0x60fb5d",
      "gasUsed": "0x6c44",
      "effectiveGasPrice": "0x5df0f879f",
      "from": "0x4f472991794c32aac39533d673e0669be70a80cf",
      "to": "0x9d29d33d4329640e96cc259e141838eb3eb2f1d9",
      "contractAddress": null
    },
    {
      "status": "0x1",
      "cumulativeGasUsed": "0x9f7d31",
      "logs": [],
      "logsBloom": "0x00000000000000000000000000000000000000000000000000000000000000000000000000000000000000000000000000000000000000000000000000000000000000000000000000000000000000000000000000000000000000000000000000000000000000000000000000000000000000000000000000000000000000000000000000000000000000000000000000000000000000000000000000000000000000000000000000000000000000000000000000000000000000000000000000000000000000000000000000000000000000000000000000000000000000000000000000000000000000000000000000000000000000000000000000000000",
      "type": "0x2",
      "transactionHash": "0x120b690ac98146c6373e6a21b0884bb5965f7744b72b6a20574aa2dadacf2f94",
      "transactionIndex": "0x64",
      "blockHash": "0x21e5c782dc729b225f97b307262fa78676f288af4f2bcfe9d8590d3e43b60081",
      "blockNumber": "0x60fb5d",
      "gasUsed": "0xd1ff",
      "effectiveGasPrice": "0x5df0f879f",
      "from": "0x4f472991794c32aac39533d673e0669be70a80cf",
      "to": "0x9d29d33d4329640e96cc259e141838eb3eb2f1d9",
      "contractAddress": null
    }
  ],
  "libraries": [],
  "pending": [],
  "returns": {},
  "timestamp": 1721645849,
  "chain": 11155111,
  "commit": "02e0d7e"
}