{
  "transactions": [
    {
      "hash": "0x37620f375648d840c056891915cc41ddfafc60a6e16d1bf4599219e6c2bf22fb",
      "transactionType": "CALL",
      "contractName": null,
      "contractAddress": "0x9d29d33d4329640e96cc259e141838eb3eb2f1d9",
      "function": "contribute()",
      "arguments": [],
      "transaction": {
        "from": "0x4f472991794c32aac39533d673e0669be70a80cf",
        "to": "0x9d29d33d4329640e96cc259e141838eb3eb2f1d9",
        "gas": "0xafca",
        "value": "0x1c6bf52634000",
        "input": "0xd7bb99ba",
        "nonce": "0x206",
        "chainId": "0xaa36a7"
      },
      "additionalContracts": [],
      "isFixedGasLimit": false
    },
    {
      "hash": "0x976d4f5c89b13467c9168a1594972a1f9a047922ccdda058a25ecc99fc136628",
      "transactionType": "CALL",
      "contractName": null,
      "contractAddress": "0x9d29d33d4329640e96cc259e141838eb3eb2f1d9",
      "function": "flip(bool)",
      "arguments": [
        "false"
      ],
      "transaction": {
        "from": "0x4f472991794c32aac39533d673e0669be70a80cf",
        "to": "0x9d29d33d4329640e96cc259e141838eb3eb2f1d9",
        "gas": "0xce2d",
        "value": "0x0",
        "input": "0x1d263f670000000000000000000000000000000000000000000000000000000000000000",
        "nonce": "0x207",
        "chainId": "0xaa36a7"
      },
      "additionalContracts": [],
      "isFixedGasLimit": false
    },
    {
      "hash": "0x1be162e08f87274567f8483b2e03c4d498179dc6932701d9ccb7ca1d59ce1482",
      "transactionType": "CREATE",
      "contractName": "AddPointProxy",
      "contractAddress": "0x368e007d9c7dee5c091a5636e78fa4bf8d52acb0",
      "function": null,
      "arguments": [
        "0x9D29D33d4329640e96cC259E141838EB3EB2f1d9"
      ],
      "transaction": {
        "from": "0x4f472991794c32aac39533d673e0669be70a80cf",
        "gas": "0x29f18",
        "value": "0x0",
        "input": "0x608060405234801561001057600080fd5b506040516101633803806101638339818101604052602081101561003357600080fd5b5051600080546001600160a01b039092166001600160a01b031990921691909117905560ff806100646000396000f3fe6080604052348015600f57600080fd5b506004361060325760003560e01c80636121061e146037578063eeeb7a3614603f575b600080fd5b603d6061565b005b604560ba565b604080516001600160a01b039092168252519081900360200190f35b60008054604080516335f9cd5560e11b815290516001600160a01b0390921692636bf39aaa9260048084019382900301818387803b15801560a157600080fd5b505af115801560b4573d6000803e3d6000fd5b50505050565b6000546001600160a01b03168156fea2646970667358221220122ede3eb64c5352860241f2b4f0e489536cd53757a9594768193dac4984cb2364736f6c634300070000330000000000000000000000009d29d33d4329640e96cc259e141838eb3eb2f1d9",
        "nonce": "0x208",
        "chainId": "0xaa36a7"
      },
      "additionalContracts": [],
      "isFixedGasLimit": false
    },
    {
      "hash": "0x412d8157dff636872724104934b332ec8b753239bff1026f10359cdb33493c17",
      "transactionType": "CALL",
      "contractName": "AddPointProxy",
      "contractAddress": "0x368e007d9c7dee5c091a5636e78fa4bf8d52acb0",
      "function": "callAddPoint()",
      "arguments": [],
      "transaction": {
        "from": "0x4f472991794c32aac39533d673e0669be70a80cf",
        "to": "0x368e007d9c7dee5c091a5636e78fa4bf8d52acb0",
        "gas": "0xb05f",
        "value": "0x0",
        "input": "0x6121061e",
        "nonce": "0x209",
        "chainId": "0xaa36a7"
      },
      "additionalContracts": [],
      "isFixedGasLimit": false
    },
    {
      "hash": "0xc2566ea5c38f66c3bff0424c49b4a1ba0179df15973fe68a451ad5fcf9de3f18",
      "transactionType": "CALL",
      "contractName": null,
      "contractAddress": "0x9d29d33d4329640e96cc259e141838eb3eb2f1d9",
      "function": "transfer(address,uint256)",
      "arguments": [
        "0x4bc1cAEDBf984D34404C4D0BF2178DAB1a9Bf026",
        "1"
      ],
      "transaction": {
        "from": "0x4f472991794c32aac39533d673e0669be70a80cf",
        "to": "0x9d29d33d4329640e96cc259e141838eb3eb2f1d9",
        "gas": "0xc61b",
        "value": "0x0",
        "input": "0xa9059cbb0000000000000000000000004bc1caedbf984d34404c4d0bf2178dab1a9bf0260000000000000000000000000000000000000000000000000000000000000001",
        "nonce": "0x20a",
        "chainId": "0xaa36a7"
      },
      "additionalContracts": [],
      "isFixedGasLimit": false
    }
  ],
  "receipts": [
    {
      "status": "0x1",
      "cumulativeGasUsed": "0xd96d2b",
      "logs": [],
      "logsBloom": "0x00000000000000000000000000000000000000000000000000000000000000000000000000000000000000000000000000000000000000000000000000000000000000000000000000000000000000000000000000000000000000000000000000000000000000000000000000000000000000000000000000000000000000000000000000000000000000000000000000000000000000000000000000000000000000000000000000000000000000000000000000000000000000000000000000000000000000000000000000000000000000000000000000000000000000000000000000000000000000000000000000000000000000000000000000000000",
      "type": "0x2",
      "transactionHash": "0x37620f375648d840c056891915cc41ddfafc60a6e16d1bf4599219e6c2bf22fb",
      "transactionIndex": "0x78",
      "blockHash": "0x54ff1518c655667430ea2ba7815fd166c1271788a50cb54ca7522c80ab2c29fa",
      "blockNumber": "0x60fa8d",
      "gasUsed": "0x7833",
      "effectiveGasPrice": "0x59df86f5a",
      "from": "0x4f472991794c32aac39533d673e0669be70a80cf",
      "to": "0x9d29d33d4329640e96cc259e141838eb3eb2f1d9",
      "contractAddress": null
    },
    {
      "status": "0x1",
      "cumulativeGasUsed": "0xd9fa25",
      "logs": [],
      "logsBloom": "0x00000000000000000000000000000000000000000000000000000000000000000000000000000000000000000000000000000000000000000000000000000000000000000000000000000000000000000000000000000000000000000000000000000000000000000000000000000000000000000000000000000000000000000000000000000000000000000000000000000000000000000000000000000000000000000000000000000000000000000000000000000000000000000000000000000000000000000000000000000000000000000000000000000000000000000000000000000000000000000000000000000000000000000000000000000000",
      "type": "0x2",
      "transactionHash": "0x976d4f5c89b13467c9168a1594972a1f9a047922ccdda058a25ecc99fc136628",
      "transactionIndex": "0x79",
      "blockHash": "0x54ff1518c655667430ea2ba7815fd166c1271788a50cb54ca7522c80ab2c29fa",
      "blockNumber": "0x60fa8d",
      "gasUsed": "0x8cfa",
      "effectiveGasPrice": "0x59df86f5a",
      "from": "0x4f472991794c32aac39533d673e0669be70a80cf",
      "to": "0x9d29d33d4329640e96cc259e141838eb3eb2f1d9",
      "contractAddress": null
    },
    {
      "status": "0x1",
      "cumulativeGasUsed": "0xdbfe79",
      "logs": [],
      "logsBloom": "0x00000000000000000000000000000000000000000000000000000000000000000000000000000000000000000000000000000000000000000000000000000000000000000000000000000000000000000000000000000000000000000000000000000000000000000000000000000000000000000000000000000000000000000000000000000000000000000000000000000000000000000000000000000000000000000000000000000000000000000000000000000000000000000000000000000000000000000000000000000000000000000000000000000000000000000000000000000000000000000000000000000000000000000000000000000000",
      "type": "0x2",
      "transactionHash": "0x1be162e08f87274567f8483b2e03c4d498179dc6932701d9ccb7ca1d59ce1482",
      "transactionIndex": "0x7a",
      "blockHash": "0x54ff1518c655667430ea2ba7815fd166c1271788a50cb54ca7522c80ab2c29fa",
      "blockNumber": "0x60fa8d",
      "gasUsed": "0x20454",
      "effectiveGasPrice": "0x59df86f5a",
      "from": "0x4f472991794c32aac39533d673e0669be70a80cf",
      "to": null,
      "contractAddress": "0x368e007d9c7dee5c091a5636e78fa4bf8d52acb0"
    },
    {
      "status": "0x1",
      "cumulativeGasUsed": "0xdc7712",
      "logs": [],
      "logsBloom": "0x00000000000000000000000000000000000000000000000000000000000000000000000000000000000000000000000000000000000000000000000000000000000000000000000000000000000000000000000000000000000000000000000000000000000000000000000000000000000000000000000000000000000000000000000000000000000000000000000000000000000000000000000000000000000000000000000000000000000000000000000000000000000000000000000000000000000000000000000000000000000000000000000000000000000000000000000000000000000000000000000000000000000000000000000000000000",
      "type": "0x2",
      "transactionHash": "0x412d8157dff636872724104934b332ec8b753239bff1026f10359cdb33493c17",
      "transactionIndex": "0x7b",
      "blockHash": "0x54ff1518c655667430ea2ba7815fd166c1271788a50cb54ca7522c80ab2c29fa",
      "blockNumber": "0x60fa8d",
      "gasUsed": "0x7899",
      "effectiveGasPrice": "0x59df86f5a",
      "from": "0x4f472991794c32aac39533d673e0669be70a80cf",
      "to": "0x368e007d9c7dee5c091a5636e78fa4bf8d52acb0",
      "contractAddress": null
    },
    {
      "status": "0x1",
      "cumulativeGasUsed": "0xdd0680",
      "logs": [],
      "logsBloom": "0x00000000000000000000000000000000000000000000000000000000000000000000000000000000000000000000000000000000000000000000000000000000000000000000000000000000000000000000000000000000000000000000000000000000000000000000000000000000000000000000000000000000000000000000000000000000000000000000000000000000000000000000000000000000000000000000000000000000000000000000000000000000000000000000000000000000000000000000000000000000000000000000000000000000000000000000000000000000000000000000000000000000000000000000000000000000",
      "type": "0x2",
      "transactionHash": "0xc2566ea5c38f66c3bff0424c49b4a1ba0179df15973fe68a451ad5fcf9de3f18",
      "transactionIndex": "0x7c",
      "blockHash": "0x54ff1518c655667430ea2ba7815fd166c1271788a50cb54ca7522c80ab2c29fa",
      "blockNumber": "0x60fa8d",
      "gasUsed": "0x8f6e",
      "effectiveGasPrice": "0x59df86f5a",
      "from": "0x4f472991794c32aac39533d673e0669be70a80cf",
      "to": "0x9d29d33d4329640e96cc259e141838eb3eb2f1d9",
      "contractAddress": null
    }
  ],
  "libraries": [],
  "pending": [],
  "returns": {},
  "timestamp": 1721642583,
  "chain": 11155111,
  "commit": "3900b0c"
}