{
  "transactions": [
    {
      "hash": "0x8174f6e90c357fe03bd762c12f96acec8bf52d74bd6397b97a93bbf598160336",
      "transactionType": "CALL",
      "contractName": null,
      "contractAddress": "0x9d29d33d4329640e96cc259e141838eb3eb2f1d9",
      "function": "contribute()",
      "arguments": [],
      "transaction": {
        "from": "0x4f472991794c32aac39533d673e0669be70a80cf",
        "to": "0x9d29d33d4329640e96cc259e141838eb3eb2f1d9",
        "gas": "0xafca",
        "value": "0x1c6bf52634000",
        "input": "0xd7bb99ba",
        "nonce": "0x201",
        "chainId": "0xaa36a7"
      },
      "additionalContracts": [],
      "isFixedGasLimit": false
    },
    {
      "hash": "0x3a024f56a40d19746e93801a367e3ca4ae0a684ef78eabe035825bb7ed8e619c",
      "transactionType": "CALL",
      "contractName": null,
      "contractAddress": "0x9d29d33d4329640e96cc259e141838eb3eb2f1d9",
      "function": "flip(bool)",
      "arguments": [
        "false"
      ],
      "transaction": {
        "from": "0x4f472991794c32aac39533d673e0669be70a80cf",
        "to": "0x9d29d33d4329640e96cc259e141838eb3eb2f1d9",
        "gas": "0xce2d",
        "value": "0x0",
        "input": "0x1d263f670000000000000000000000000000000000000000000000000000000000000000",
        "nonce": "0x202",
        "chainId": "0xaa36a7"
      },
      "additionalContracts": [],
      "isFixedGasLimit": false
    },
    {
      "hash": "0xc0e89a39474a5c59bfcfe60b013f715a78dd9442446415534c7f8d435028294b",
      "transactionType": "CREATE",
      "contractName": "AddPointProxy",
      "contractAddress": "0x286cff36beaf4a378912f5104e58f54954c8e94a",
      "function": null,
      "arguments": [
        "0x9D29D33d4329640e96cC259E141838EB3EB2f1d9"
      ],
      "transaction": {
        "from": "0x4f472991794c32aac39533d673e0669be70a80cf",
        "gas": "0x29f18",
        "value": "0x0",
        "input": "0x608060405234801561001057600080fd5b506040516101633803806101638339818101604052602081101561003357600080fd5b5051600080546001600160a01b039092166001600160a01b031990921691909117905560ff806100646000396000f3fe6080604052348015600f57600080fd5b506004361060325760003560e01c80636121061e146037578063eeeb7a3614603f575b600080fd5b603d6061565b005b604560ba565b604080516001600160a01b039092168252519081900360200190f35b60008054604080516335f9cd5560e11b815290516001600160a01b0390921692636bf39aaa9260048084019382900301818387803b15801560a157600080fd5b505af115801560b4573d6000803e3d6000fd5b50505050565b6000546001600160a01b03168156fea2646970667358221220122ede3eb64c5352860241f2b4f0e489536cd53757a9594768193dac4984cb2364736f6c634300070000330000000000000000000000009d29d33d4329640e96cc259e141838eb3eb2f1d9",
        "nonce": "0x203",
        "chainId": "0xaa36a7"
      },
      "additionalContracts": [],
      "isFixedGasLimit": false
    },
    {
      "hash": "0xf58334379a2173b898a4ccf7814c8dce1ee354c08708e06fb243ea4a5ed6efb7",
      "transactionType": "CALL",
      "contractName": "AddPointProxy",
      "contractAddress": "0x286cff36beaf4a378912f5104e58f54954c8e94a",
      "function": "callAddPoint()",
      "arguments": [],
      "transaction": {
        "from": "0x4f472991794c32aac39533d673e0669be70a80cf",
        "to": "0x286cff36beaf4a378912f5104e58f54954c8e94a",
        "gas": "0x18be4",
        "value": "0x0",
        "input": "0x6121061e",
        "nonce": "0x204",
        "chainId": "0xaa36a7"
      },
      "additionalContracts": [],
      "isFixedGasLimit": false
    },
    {
      "hash": "0xc0870356117a769435de5d034ea0137baf4c5f26072d9bff5a0cedfbf9db9428",
      "transactionType": "CALL",
      "contractName": null,
      "contractAddress": "0x9d29d33d4329640e96cc259e141838eb3eb2f1d9",
      "function": "transfer(address,uint256)",
      "arguments": [
        "0x4bc1cAEDBf984D34404C4D0BF2178DAB1a9Bf026",
        "1"
      ],
      "transaction": {
        "from": "0x4f472991794c32aac39533d673e0669be70a80cf",
        "to": "0x9d29d33d4329640e96cc259e141838eb3eb2f1d9",
        "gas": "0x207b2",
        "value": "0x0",
        "input": "0xa9059cbb0000000000000000000000004bc1caedbf984d34404c4d0bf2178dab1a9bf0260000000000000000000000000000000000000000000000000000000000000001",
        "nonce": "0x205",
        "chainId": "0xaa36a7"
      },
      "additionalContracts": [],
      "isFixedGasLimit": false
    }
  ],
  "receipts": [
    {
      "status": "0x1",
      "cumulativeGasUsed": "0x86428c",
      "logs": [],
      "logsBloom": "0x00000000000000000000000000000000000000000000000000000000000000000000000000000000000000000000000000000000000000000000000000000000000000000000000000000000000000000000000000000000000000000000000000000000000000000000000000000000000000000000000000000000000000000000000000000000000000000000000000000000000000000000000000000000000000000000000000000000000000000000000000000000000000000000000000000000000000000000000000000000000000000000000000000000000000000000000000000000000000000000000000000000000000000000000000000000",
      "type": "0x2",
      "transactionHash": "0x8174f6e90c357fe03bd762c12f96acec8bf52d74bd6397b97a93bbf598160336",
      "transactionIndex": "0x44",
      "blockHash": "0xc5b18c45302724755d788224018c64b6c3691a5f24d320c46f4fa3319c2abe23",
      "blockNumber": "0x60fa88",
      "gasUsed": "0x7833",
      "effectiveGasPrice": "0x5b9338ecf",
      "from": "0x4f472991794c32aac39533d673e0669be70a80cf",
      "to": "0x9d29d33d4329640e96cc259e141838eb3eb2f1d9",
      "contractAddress": null
    },
    {
      "status": "0x1",
      "cumulativeGasUsed": "0x86cf86",
      "logs": [],
      "logsBloom": "0x00000000000000000000000000000000000000000000000000000000000000000000000000000000000000000000000000000000000000000000000000000000000000000000000000000000000000000000000000000000000000000000000000000000000000000000000000000000000000000000000000000000000000000000000000000000000000000000000000000000000000000000000000000000000000000000000000000000000000000000000000000000000000000000000000000000000000000000000000000000000000000000000000000000000000000000000000000000000000000000000000000000000000000000000000000000",
      "type": "0x2",
      "transactionHash": "0x3a024f56a40d19746e93801a367e3ca4ae0a684ef78eabe035825bb7ed8e619c",
      "transactionIndex": "0x45",
      "blockHash": "0xc5b18c45302724755d788224018c64b6c3691a5f24d320c46f4fa3319c2abe23",
      "blockNumber": "0x60fa88",
      "gasUsed": "0x8cfa",
      "effectiveGasPrice": "0x5b9338ecf",
      "from": "0x4f472991794c32aac39533d673e0669be70a80cf",
      "to": "0x9d29d33d4329640e96cc259e141838eb3eb2f1d9",
      "contractAddress": null
    },
    {
      "status": "0x1",
      "cumulativeGasUsed": "0x88d3da",
      "logs": [],
      "logsBloom": "0x00000000000000000000000000000000000000000000000000000000000000000000000000000000000000000000000000000000000000000000000000000000000000000000000000000000000000000000000000000000000000000000000000000000000000000000000000000000000000000000000000000000000000000000000000000000000000000000000000000000000000000000000000000000000000000000000000000000000000000000000000000000000000000000000000000000000000000000000000000000000000000000000000000000000000000000000000000000000000000000000000000000000000000000000000000000",
      "type": "0x2",
      "transactionHash": "0xc0e89a39474a5c59bfcfe60b013f715a78dd9442446415534c7f8d435028294b",
      "transactionIndex": "0x46",
      "blockHash": "0xc5b18c45302724755d788224018c64b6c3691a5f24d320c46f4fa3319c2abe23",
      "blockNumber": "0x60fa88",
      "gasUsed": "0x20454",
      "effectiveGasPrice": "0x5b9338ecf",
      "from": "0x4f472991794c32aac39533d673e0669be70a80cf",
      "to": null,
      "contractAddress": "0x286cff36beaf4a378912f5104e58f54954c8e94a"
    },
    {
      "status": "0x1",
      "cumulativeGasUsed": "0x89f279",
      "logs": [],
      "logsBloom": "0x00000000000000000000000000000000000000000000000000000000000000000000000000000000000000000000000000000000000000000000000000000000000000000000000000000000000000000000000000000000000000000000000000000000000000000000000000000000000000000000000000000000000000000000000000000000000000000000000000000000000000000000000000000000000000000000000000000000000000000000000000000000000000000000000000000000000000000000000000000000000000000000000000000000000000000000000000000000000000000000000000000000000000000000000000000000",
      "type": "0x2",
      "transactionHash": "0xf58334379a2173b898a4ccf7814c8dce1ee354c08708e06fb243ea4a5ed6efb7",
      "transactionIndex": "0x47",
      "blockHash": "0xc5b18c45302724755d788224018c64b6c3691a5f24d320c46f4fa3319c2abe23",
      "blockNumber": "0x60fa88",
      "gasUsed": "0x11e9f",
      "effectiveGasPrice": "0x5b9338ecf",
      "from": "0x4f472991794c32aac39533d673e0669be70a80cf",
      "to": "0x286cff36beaf4a378912f5104e58f54954c8e94a",
      "contractAddress": null
    },
    {
      "status": "0x1",
      "cumulativeGasUsed": "0x8b6ab9",
      "logs": [],
      "logsBloom": "0x00000000000000000000000000000000000000000000000000000000000000000000000000000000000000000000000000000000000000000000000000000000000000000000000000000000000000000000000000000000000000000000000000000000000000000000000000000000000000000000000000000000000000000000000000000000000000000000000000000000000000000000000000000000000000000000000000000000000000000000000000000000000000000000000000000000000000000000000000000000000000000000000000000000000000000000000000000000000000000000000000000000000000000000000000000000",
      "type": "0x2",
      "transactionHash": "0xc0870356117a769435de5d034ea0137baf4c5f26072d9bff5a0cedfbf9db9428",
      "transactionIndex": "0x48",
      "blockHash": "0xc5b18c45302724755d788224018c64b6c3691a5f24d320c46f4fa3319c2abe23",
      "blockNumber": "0x60fa88",
      "gasUsed": "0x17840",
      "effectiveGasPrice": "0x5b9338ecf",
      "from": "0x4f472991794c32aac39533d673e0669be70a80cf",
      "to": "0x9d29d33d4329640e96cc259e141838eb3eb2f1d9",
      "contractAddress": null
    }
  ],
  "libraries": [],
  "pending": [],
  "returns": {},
  "timestamp": 1721642514,
  "chain": 11155111,
  "commit": "3900b0c"
}